:10200000008000209D4600008546000085460000B7
:1020100000000000000000000000000000000000C0
:1020200000000000000000000000000085460000E5
:10203000000000000000000085460000F14600009E
:102040008546000085460000854600008546000064
:102050008546000085460000854600008946000050
:1020600085460000D14500008546000085460000F9
:102070008546000085460000E145000085460000D9
:102080008546000085460000854600008546000024
:1020900000000000854600008546000085460000DF
:1020A0008546000085460000854600008546000004
:1020B0000000000010B5064C2378002B07D1054B1B
:1020C000002B02D0044800E000BF0123237010BDA4
:1020D00050010020000000004070000008B5084BCF
:1020E000002B03D00748084900E000BF07480368F9
:1020F000002B03D0064B002B00D0984708BDC046EC
:102100000000000040700000540100204001002049
:1021100000000000F0B52D4CC3B01D1C48AB019071
:10212000161C1F88201C002A07D1294902F0FCFD3B
:10213000201C019902F012FE45E0264902F0F4FD50
:10214000311C201C02F0F0FD2349201C02F0ECFDA4
:10215000291C201C02F0F1FD2049201C02F0E4FDA6
:10216000391C0A22201C02F048FE1D49201C02F0E6
:10217000F5FD4999002926D0201C1A4902F0D4FD0A
:10218000499A499E15780136002D1CD00023DAB2F9
:10219000954204D0F25C02A9CA540133F7E702AABF
:1021A00077190023201C111C535502F0BDFD3D780A
:1021B0007E1C201C002D03D00B4902F0B5FDE3E787
:1021C00002F0C4FDE0E743B0F0BDC0463C0400208F
:1021D000CC680000F3680000FC68000002690000A1
:1021E0000A690000116900001F69000073B5254CE1
:1021F000E121201C490203F039F92349684602F025
:1022000023FD224822496A4600F04AFB201C21494E
:1022100002F08AFD00251D4E6846311C00F054FB7B
:1022200000AA531919790A22201C02F0FEFD01357B
:10223000201C194902F078FD042DECD1201C02F07D
:1022400085FD311C684600F03FFB144D6946281C93
:10225000134A01F039F8281C124901F005F8002250
:10226000114B281C114901F0A8FB201C104902F059
:1022700075FD201C0F4902F071FD201C0E4902F073
:102280006DFD73BD3C0400200A00002024020020E4
:102290000400002022690000E3690000980100208A
:1022A0003269000015210000881300003A6900001F
:1022B000406900008F6900009F69000037B5002366
:1022C000191C1A1C0093094802F0B0FC084D281C88
:1022D00000F07EFC074C291C201C00F097FF201CFE
:1022E0000549064A04F090F937BDC0466C0100204C
:1022F00074010020980100204332000000000020FB
:10230000F0B50025C1B0194C201C03F027F80028B7
:102310000AD0201C03F04AF86B46585501350520B9
:10232000EDB202F0F9F9EEE7114E6B465855301C4C
:1023300000F0A1FF071E13D1002D11D00D49201C64
:1023400002F0F2FC6946201C02F0EEFC0A49201C57
:1023500002F004FD301C69463A1C084B01F02DFBCD
:10236000301C02F001F841B0F0BDC0463C04002032
:1023700098010020E5690000046A0000881300004D
:1023800007B5002300930348191C1A1C02F04EFCE9
:1023900007BDC046FC01002049680023416003815D
:1023A000704730B5081C0378002B01D00130FAE7E4
:1023B0001C1C0878002810D0032C16DC2E2806D10F
:1023C000FF2B12DC101903710134002303E00A25EE
:1023D0006B4330381B180131EBE7FF2B06DC032C75
:1023E00004DC14192371012000E0002030BD00003E
:1023F00007B5002300930348191C1A1C02F016FCB1
:1024000007BDC04604020020F0B585B0041C0F1CB7
:1024100002F07CF9251C0C352081211C6C460E3401
:1024200008310222281C00F0D8FA0123211C0222C4
:10243000281C238000F0D1FA80235B00211C02229B
:10244000281C238000F0C9FA0023211C0222281C2A
:10245000238000F0C2FA211C0222281C00F0BDFAE1
:10246000281C211C022200F0B8FA3E1C3378002BF5
:102470001DD03E1C3378721C0192002B11D1F31B2E
:102480000093002B11DD009A69460D310A70281C5B
:10249000012200F0A2FA281C391C009A00F09DFAD3
:1024A00003E02E2BEBD0019EE4E7019FDEE76946B7
:1024B0000D31281C012280260B70760000F08DFA69
:1024C000211C281C0222268000F087FA281C211CCF
:1024D0000222268000F081FA012005B0F0BD000044
:1024E000F0B589B0051C0F1C019202F00FF9061C13
:1024F0002C1C0C34201C00F0B9FA002808DC02F077
:1025000005F9801BB8420BD8322002F005F9EFE73D
:1025100069686A6A914205D12B8D352B02D103E09F
:102520007048DDE07048DBE0201C00F01FFA0B284B
:1025300000DCD4E005AF391C0C22201C00F070FA3E
:102540006B4616331B886A465BBAD38129893A8861
:102550009EB2914202D11BB2002B04DB201C00F082
:1025600011FA6248BCE0624B1E4004D0201C00F00F
:1025700009FA6048B4E06B461A331B885BBA9BB219
:102580000093002B1FD1201C00F0FCF95A48A7E053
:102590006D461235201C291C012200F041FA2B78CF
:1025A000002B19D12B78002BF2D1201C00F022FA3D
:1025B000201C00F01FFA201C00F01CFA201C00F068
:1025C00019FA0136B6B206AB1B881A06120C1B0AA2
:1025D00013439E42DCDB08E02B785A1E2A70002B46
:1025E000E0D0201C00F006FAF6E700256E460D3616
:1025F000311C0122201C00F013FA33783F22191CF1
:1026000091430AD1002B0DD033785A1E3270002B23
:1026100008D0201C00F0EEF9F6E7201C00F0EAF9E3
:10262000002333703378002BE0D104AF391C022231
:10263000201C00F0F5F9694612310222201C00F03E
:10264000EFF9201C00F0D6F9201C00F0D3F96E46FB
:10265000201C00F0CFF90E36201C00F0CBF902222E
:10266000201C311C00F0DCF93B881A06120C1B0AF6
:102670001343012B07D16A46538A1F063F0C1B0ADE
:102680001F43012F01D0002712E033881A06120CD5
:102690001B0A1A43042A04D0201C00F073F91748BF
:1026A0001EE00199201C043100F0BAF9381C17E033
:1026B00033881A06120C1B0A13439F4205DA201CAA
:1026C000013700F097F9BFB2F2E70135009BADB2D8
:1026D0009D428BD1201C00F055F9094800E00948C3
:1026E00009B0F0BDFFFF0000FEFF0000FCFF00008E
:1026F0000F020000FBFF0000FAFF0000F7FF0000E0
:10270000F6FF0000FDFF0000F0B585B0041C0F1CB3
:102710000192FFF746FE051E35D11E4B62685B68CD
:102720009A4232D001F0F2FF0F23011C1940261CFF
:1027300080230C36DB00C918301C00F0BFF90128DB
:1027400025D16268144B0392301C02A935220293F2
:1027500000F036F9002801D1002510E0201C391CBA
:10276000FFF752FE0028F7D0301C00F031F90028A6
:10277000F2D0201C0949019AFFF7B2FE051C301C5B
:1027800000F00CF903E0012501E002256D42281C50
:1027900005B0F0BD04020020206F00008813000087
:1027A00008B50421021C0B1C012000F0BDFB08BD74
:1027B00008B50421021C0B1C052000F0B5FB08BD68
:1027C00008B5021C04210920062300F0ADFB08BD5A
:1027D00008B50421021C0B1C0F2000F0A5FB08BD4E
:1027E000F8B50F1C041C017D0A48161C1D1C00F0C6
:1027F000F3FB381CFFF7E4FF301DFFF7E9FF0698F5
:102800000430FFF7CDFF07980430FFF7D1FF6D6864
:102810006560F8BD68020020F0B50C1C8DB0FF218A
:102820001E1C0023051C0093171C0B1C0A1C02A86D
:1028300002F0FCF9129A0C4B526804930693089329
:102840000A93039B7F68766808A909920AAA0B93EA
:1028500000910192281C211C04AA06AB059707963B
:10286000FFF7BEFF0DB0F0BD206F000010B554683B
:102870000A4A8AB0039404920594069208920124AD
:102880006A465B68D473039A079308AB0992009376
:1028900004AA06ABFFF7C0FF0AB010BD206F00000E
:1028A0007FB5084B52680293019203920493012270
:1028B0006B46DA71019B02AA059304ABFFF7D6FFC2
:1028C00007B000BD206F000010B5041C02F0A6F98F
:1028D000221D002104230F2000F012FC201C10BD3B
:1028E000024B4968036041607047C046206F00009A
:1028F00037B50024231C211C221C0094054802F03B
:1029000095F9054D281C02F089F90A232C612B75D5
:1029100037BDC0460C0200202402002007B500236A
:1029200000930348191C1A1C02F080F907BDC04629
:102930003C02002007B5002300930348191C1A1C11
:1029400002F074F907BDC0464402002008B50368D0
:102950005B6B984708BD0000024B896903604160CA
:102960007047C046206F0000808B7047008C704716
:1029700013B502686B46D97107335468191C0122DC
:10298000A04716BD10B5041C238C002B04D023686F
:10299000201CDB689847F7E710BD000010B5041C49
:1029A000007C082808D000F0AFF9227C034B5200CD
:1029B0000021D1520823237410BDC0461402002008
:1029C00008B50023C3830431007C00F035FA08BD4C
:1029D00008B5007C00F04CFA08BD38B5041C0D1C8D
:1029E00093B2E18B2A1C007C00F008FAE38BC31839
:1029F000E38338BD37B5038C041C002B08D06D462B
:102A00000735007C291C012200F0B6F9002802DC01
:102A10000120404203E0238C2878013B23843EBD03
:102A200010B5038C041C002B02D1012040420CE0A5
:102A3000007C934201D81AB200E012B200F09CF977
:102A40000028F2DD238C1B1A238410BD13B5038CE0
:102A5000002B07D06C460734007C211C00F0C0F925
:102A6000207801E00120404216BD0000036813B544
:102A70005B69041C9847217C0F4800F009FB031C8C
:102A80000020834217D0207C6946082200F074F9A8
:102A9000002810DD201C6946143002F0E1F8694678
:102AA0000B794A791B02D318A3838879CB7900026A
:102AB000181880B2208416BD68020020F8B5027C88
:102AC000041C0E1C0023082A1BD11D1CEFB2790127
:102AD0000831C9B2032000F057FA002801D1277449
:102AE00004E01828FBD00135082DEFD1207C00230D
:102AF000082806D0238466820221321C00F012F9D5
:102B00000123181CF8BD0000F0B5041C85B00D1C95
:102B10002C482D49171C02F021F9237C0026082B94
:102B20004CD1F2B251010831C9B20320019200F038
:102B30002BFA002802D1019B237404E01828FAD054
:102B40000136082EEDD1227C00260192082A35D0CC
:102B50001E49062202A803F0B8FD6A797F231340BC
:102B60006A46D372AB790C201373EB795373019BD4
:102B70002A1D59010C310423C9B200F0D5F9257C76
:102B80003A0A6D010C35EDB2291C102000F0A4F9B1
:102B9000FAB2291C112000F09FF9217C062049017E
:102BA0000C31C9B202AA031C00F0BEF92684207CB5
:102BB00002213A1C802300F0B5F80126301C05B034
:102BC000F0BDC0463C040020806A0000266A000078
:102BD000002310B54360FA239B008360054B041C5F
:102BE0000833036008230374143002F017F8201C24
:102BF00010BDC046306A000070B590B0041C04A837
:102C0000151C0E1C02F00AF807A8FFF7E1FF684642
:102C100002F004F802A80D49FFF762FE04A802A919
:102C2000FFF7BAFB04A8311C6A46FFF76DFD0128C7
:102C300009D1074A2368201C5B6A0292019A02A903
:102C400003922A1C984710B070BDC0462402002091
:102C5000206F000007B5002300930348191C1A1CBD
:102C600001F0E4FF07BDC0464C02002007B5002379
:102C700000930348191C1A1C01F0D8FF07BDC04679
:102C80005402002008B50A1C41010C31C9B20C20C5
:102C9000042300F049F908BD08B50B1C41010831B7
:102CA000C9B2181C00F070F908BD08B50221FFF781
:102CB000F3FF08BD08B50B1C41010C31C9B2181C4B
:102CC00000F00AF908BD38B50A0A0D1C041C0421DD
:102CD000FFF7F0FFEAB2201C0521FFF7EBFF38BD3C
:102CE00008B50A1C0221FFF7E5FF08BD38B50A0A3E
:102CF0000D1C041C1021FFF7DDFFEAB2201C11217E
:102D0000FFF7D8FF38BD000010B5041C211C1022AD
:102D1000034800F062FA201CFF21FFF7E1FF10BD1D
:102D200068020020F7B501934B1E041C0E1C171CF3
:102D30000025042B1AD8FFF7E7FF019A201C324325
:102D4000291CFFF7B7FFAF4202D0201C391C05E059
:102D5000074B201C1988013189B21980FFF7B3FF96
:102D60000448211C012200F038FA0125281CFEBD70
:102D70005C02002068020020F0B5184E85B0051CEA
:102D80000391301C291C171C00F082F904B2002C9E
:102D90000CD1281C0321FFF77FFF14281AD000282C
:102DA00018D01C38441EA041444213E0231CBC42EE
:102DB00000DD3B1C1CB2002C0CDD00220092301CFC
:102DC000291C039A9BB200F0DBF9301C291C40221D
:102DD00000F003FA201C05B0F0BDC04668020020D8
:102DE00013B5031C01240A1C0094191C0248231C5F
:102DF00000F0C6F9201C16BD68020020F0B50D4E8B
:102E0000051C85B00F1C301C291C1C1C039200F0F3
:102E100021F9844204D9301C291C00F01BF9041C40
:102E2000301C0094291C3A1C039B00F041F9201C23
:102E300005B0F0BD6802002038B50B78051C141CE5
:102E4000002B09D14B78002B06D18B78002B03D1B6
:102E5000CA78181C002A0AD00020844207D0281CF7
:102E6000FFF710FF281C211CFFF740FF012038BD91
:102E700038B5041C211C0D48202200F0AEF9201C9E
:102E8000FFF713FF1021051C0D40201C002D09D158
:102E9000FFF70BFF0307F2D5201C1821FFF720FFD7
:102EA000281C02E0FFF71CFF012038BD680200204B
:102EB00008B5034B0021187801F000FE08BDC0469C
:102EC0006902002008B5034B0121187801F0F6FDD6
:102ED00008BDC04669020020F8B5114C114B051C15
:102EE0000F1C161C201C06CB01F022FBFFF7E0FF95
:102EF000290A201C01F04AFBE9B2201C01F046FB24
:102F0000391C201C01F042FB311C201C01F03EFB4F
:102F1000FFF7D8FF201C01F027FB0120F8BDC046B9
:102F20007C02002060020020F7B5154C1F1C154BD9
:102F3000061C0191201C151C06CB01F0F9FAFFF7C5
:102F4000B7FF310A201C01F021FBF1B2201C01F077
:102F50001DFB201C019901F019FB2E1C731B9BB259
:102F6000BB4205D23178201C01F010FB0136F5E799
:102F7000FFF7A8FF201C01F0F7FA381CFEBDC04681
:102F80007C0200206002002070B5114B114C051C22
:102F90000E1C201C06CB01F0CBFAFFF789FF290A93
:102FA000201C01F0F3FAE9B2201C01F0EFFA311C09
:102FB000201C01F0EBFA0021201C01F0E7FA051CAF
:102FC000FFF780FF201C01F0CFFA281C70BDC0461F
:102FD000600200207C02002038B5FA20144C8000EA
:102FE000217001F099FB2078012101F00DFD1148BD
:102FF00001F076FA0020011CFFF7C6FF8022524242
:103000000243D2B200200421FFF766FF00246501CD
:103010000C35EDB2291C02221E20FFF75DFF0134A2
:103020001F20291C0222FFF757FF082CEFD138BDC3
:10303000690200207C02002038B52021041CFFF723
:103040002BFE21210502201CFFF726FEADB2281819
:1030500080B238BD70B50E1C0024301CFFF7ECFFA9
:10306000051E03D0301CFFF7E7FF041CAC42F4D16F
:10307000201C70BD38B52621041CFFF70DFE27214A
:103080000502201CFFF708FEADB2281880B238BD3B
:1030900070B50E1C0024301CFFF7ECFF051E03D09A
:1030A000301CFFF7E7FF041CAC42F4D1201C70BDBC
:1030B000F7B50C1C0193081C08AB2421171C1D88B4
:1030C000FFF7EAFD2521061C201CFFF7E5FD36026F
:1030D000C719BE19B6B261012B1C14317519ADB2F6
:1030E000301C019AC9B2FFF71FFF2A0A201C2421B5
:1030F000FFF7E0FDEAB2201C2521FFF7DBFDF7BD5D
:10310000F7B5154C1F1C154B061C0191201C151CF6
:1031100006CB01F00DFAFFF7CBFE310A201C01F0BF
:1031200035FAF1B2201C01F031FA201C019901F0AE
:103130002DFA2E1C731B9BB2BB4206D2201C002111
:1031400001F024FA30700136F4E7FFF7BBFE201CD3
:1031500001F00AFA381CFEBD7C020020600200204B
:1031600013B5141C6846C4800630008849011A1C37
:10317000183104AB1B88C9B280B2FFF7C1FF13BD81
:10318000F0B585B01D1C0AAB1B780C1C071C081C75
:10319000282102920393FFF77FFD2921061C201CA2
:1031A000FFF77AFD36028619B6B2029B0095381CED
:1031B000211C321CFFF7D4FF039B002B0BD1751988
:1031C000ADB22A0A2821201CFFF774FDEAB2201CA8
:1031D0002921FFF76FFD05B0F0BD10B5081C0C1CD0
:1031E0000121FFF767FD201C0121FFF755FD002895
:1031F000F9D110BD034B044A1A6000225A711A71AA
:103200007047C0466002002000127A0038B5041CE6
:1032100004300D1C01F002FD201C002108220C309E
:1032200003F05CFA201C002120221C3003F056FA27
:1032300000232560201C2375A36123646364E3637A
:1032400038BD10B5041C006803681B6A9847201C31
:1032500010BD10B58C000419206C002803D003F0B9
:103260001BFA0023236410BD0166704708B50121D5
:10327000FFF7EFFF08BD406C431E98417047000008
:1032800038B5051C0C1E01D1002019E0806900280A
:1032900001D003F001FA201C03F0EBFA073003F031
:1032A000F1F9A8610028EFD0211C03F0DAFA201C04
:1032B00003F0DFFAAB690349181803F0D2FA0120D2
:1032C00038BDC046A16A000073B5051C0E1C141C55
:1032D00001F01CFA144B984203D8642001F01CFA48
:1032E000F6E77668211CAE60281CFFF7C9FF0F4E79
:1032F000041C211C301C0A2201F083FD002C0BD081
:103300002C680B4923686846DD6901F09DFC201C90
:103310006946084AA847041C301C211C0A2201F0F7
:1033200070FD201C76BDC046B70B00003C04002099
:103330000E000020E9140000F0B5071C108885B0CD
:103340000C1C03921D1C00902378002B45D0231CDD
:103350001A78191B0131002A07D10A9E4A1E013E24
:103360006B1C2A70029201941EE02E2AF5D00133C4
:10337000EEE70198013E01785A1C1970002E0CDC12
:103380003868291C03680A9A5B6898470A9A00996A
:103390008E18B6B20096161C2A1C019B02980133A7
:1033A000013801930290131C0299019C0029E0DC72
:1033B00023782E2B01D10134FAE70A9A9642C3D022
:1033C0003868921B0368291C5B68984700980A9923
:1033D00043189E1BB6B20096B6E70B9A002A0AD095
:1033E0002B703868291C036801225B689847009E8F
:1033F0000136B6B200960098039B188005B0F0BD68
:10340000F0B5141C87B00A886E46051CF2820127AD
:10341000163603910093A969321C231C0197FFF70C
:103420008BFF0023237080236770A370E7702868E8
:10343000211C036804225B68984733887820043392
:10344000338001F025F82060042001F019F8A080F5
:10345000287A697AAA7AEB7AE1712272A071637292
:103460002868211C03680A225B68984733880399FF
:103470000A330B8007B0F0BD10B5081C0C1C03F01C
:10348000F8F92318A34203D9013B5A782E2AF9D11F
:10349000981C10BDF8B5151C1468069A0E1C0F6810
:1034A0000020944205DB191C381C03F0FFF843424E
:1034B0005841069BFF18E41A37602C603B782E2B8E
:1034C00003D10137013C37602C60F8BD002904D0DE
:1034D0000020012902D1024800E002487047C0469E
:1034E000B96A00009C6A0000F0B587B06D461F1CE9
:1034F000138816358E1D03922B800D9AB300C318C6
:10350000041C5B68002A01D0996800E059680C9B94
:103510000D9A009301923B1C201C2A1CFFF70CFF04
:103520000D9B002B12D1B300E3185B68201C997827
:10353000FFF7CCFF002809D00C9A0123411C009210
:103540000193201C2A1C3B1CFFF7F6FE6B4616332A
:103550001B88039A138007B0F0BDF0B51C1C87B020
:1035600013886D4603920C9AEB8216350123009264
:1035700001932A1C231C061C02910027FFF7B4FFAD
:1035800001220C23E27063702770A7700D9800F081
:103590007FFF029B606006339B00F3185B685868EE
:1035A00003F067F90D3080B200F06AFF20813068C7
:1035B000211C03680A225B6898472B882A1C0A335F
:1035C0002B800C9B01970093301C231C0299FFF762
:1035D0008BFF2B88039A138007B0F0BDF0B58DB038
:1035E00009AC6F4600210492061C0C221A37201CDD
:1035F0001D1C398003F072F8049988B200F040FF76
:10360000A378782293432080A370052D2BD8281C03
:1036100002F096FF031608031111012000F030FF9D
:10362000E0801BE0042000F02BFFE080012000F090
:1036300027FF608112E0012000F022FFA08012E04D
:10364000012000F01DFFA080012000F019FFE378A9
:103650000F229343032213436081E370A2787C23FB
:103660005B421343A3703468BC49236807A85B6AB4
:10367000049301F0E9FA201C07A9B94A049B984772
:10368000306809AC0368211C5B680C2298473B88B2
:103690000C333B80052D00D958E1281C02F05AFF5D
:1036A000500133010600FA000501050100250C2137
:1036B0000091301C12993A1C231C0195FFF714FF4E
:1036C000252221236A4413708021262349426B441A
:1036D000272219706A44012313702570782000F0A6
:1036E000D7FE0A90B06903F0C4F8083080B200F049
:1036F000C7FE0BAB18803068211C03680A225B6888
:1037000098473B8827210A3369440D703B80129902
:1037100025236B441D7026228B00F3186A44157014
:10372000DA6925701088049300F0AAFE0AAB1880AD
:103730003068211C036806225B6898473B8801219A
:1037400006333B800C2300930191301CB1693A1C75
:10375000231CFFF7F1FD0C220092301C12993A1C39
:10376000231C0195FFF7C0FE2521102369440B702F
:10377000262280235B426A44272113706944012278
:103780000A702570782000F083FE0A903068211CB2
:10379000036808225B6898473B88049908333B809C
:1037A000CB69D868A84211D1262169442522087026
:1037B000207001236A44306813700368211C5B6821
:1037C000032298473B8803333B801DE003F051F808
:1037D00082B2051C101C059200F052FE2080306859
:1037E000211C036802225B6898473B880499306873
:1037F0000233CA693B800368D1685B682A1C98471A
:103800003B88059AD4183C806D461A3509AC0C27C4
:1038100001230193301C53492A1C231C0097FFF7F6
:103820008BFD6A4625320023537023706B460121BD
:10383000273319701770782000F02AFE049A0A9036
:10384000D369986803F015F8023080B200F018FED2
:103850000BAB18803068211C03680A225B6898470C
:103860002B88301C0A332B800123019312992A1CC8
:10387000231C0097FFF738FE78230193301C129920
:103880002A1C231C0097FFF768FE301C291C221CF1
:103890003B1C59E00C23009300230193301C129928
:1038A0003A1C231CFFF759FE50E0052D01D1716C25
:1038B00000E0316C0C220123009201933A1C231C7E
:1038C000301CFFF739FD6A4600232632137023703F
:1038D0000122052D00D10C226B4625331A70306869
:1038E00001229A700368211C5B680C2298473B8870
:1038F000053D0C333B8000F009FF6B425D41123502
:10390000AD00A85122E00C2101250091301CB169C5
:103910003A1C231C0195FFF70FFD6A46002326324F
:10392000137023706B4625331C2230681A709D700B
:103930000368211C5B68042298473B8804333B8062
:10394000301C391C221C0C23FFF75AFD3068036819
:10395000DB6A984701200DB0F0BDC0460E00002084
:10396000E9140000A86A0000F7B58D0045191F1C76
:103970002B6C041C0E1C002B1AD1002901D1C36D25
:1039800000E0036E002B13D02A64002F02D000F059
:10399000BDFEC7190022731E9E412F65331D009284
:1039A000201C111CFFF71AFE01384342584103E066
:1039B000101C02F071FE0020FEBDF7B50F1C161C96
:1039C0000193051CFFF752FC381C02F052FF0D302A
:1039D00002F058FE041C002C14D0391C02F041FFE8
:1039E000311C281CFFF772FD011E02D0201C02F0C2
:1039F0002BFF2B1C58331E70281C0121221C019BFD
:103A0000FFF7B2FFFEBDC36DF7B5041C0D1C171CFC
:103A1000002B0ED0002904D0FFF72EFD0023013823
:103A20000370391C6846E66D01F00EF9281C6946E2
:103A3000B047206C02F030FE00232364F7BD000085
:103A4000F0B5D5B0071C00210A2222A802F046FEDC
:103A50003868002212AB1A8003681B6B984783B248
:103A6000002B00D12CE1181C1C1C02F00BFE059051
:103A7000059D38680368002D05D15B699847059E50
:103A8000FE250B961FE10599221C5B6B984725AC20
:103A9000059A231C23CA23C3208800F0F4FC0B9052
:103AA000A08800F0F0FC0D90E08800F0ECFC0F9096
:103AB000208900F0E8FC1090608900F0E4FCA47814
:103AC000072311909C4300D0E7E0386803681B6C23
:103AD0009847C04B984200D0DFE00C250395261C88
:103AE0000894089D0D98854200D3E4E0B86934AC91
:103AF00000252570409002F0BCFEB7493AAB012288
:103B000041911C2165704A901A704B915A700224A1
:103B1000A5007B195B6940AA002B0ED0986800288D
:103B20000BD0505102F0A5FE4AAB0122E8503AAB4F
:103B3000E254002234ABE25407E0002353514AAA76
:103B4000AB503AAAA35434AAA35401340A2CDFD1AF
:103B5000059D039825AB2A5C051C1A700135069259
:103B60000492802A12DD05994A5D01351A70111CF4
:103B7000002334AA9A5C002A04D08A4202D0002092
:103B80003AAA985401330A2BF3D136E0069A002A58
:103B900039D0049B03930C2B01DD0C200390059A74
:103BA00025A85119039A02F090FD039B0498ED1883
:103BB000C01A0490002422ABE35C002B17D1E8214B
:103BC00009196A46895C0791002910D0A20040AB10
:103BD000D118039B4AA812180093381C25ABFFF795
:103BE00059FC079B69460340E820001943540134FF
:103BF0000A2CE0D1049A002ACBDC069B013B7F2BE8
:103C000001D80395A4E7059B25AC5919201C042273
:103C100002F05BFD6B46247897331878013BA4468D
:103C20001C787F231C406B46953304351A78039526
:103C3000002322A9595C002928D1990040AD4D5993
:103C4000002D23D03AAD5D5D002D1FD04AAD4959FE
:103C500000291BD16546002D18D1012816D1002C52
:103C600014D1002B02D1012A0AD105E00C2A03D07D
:103C7000102A01D0212A09D1012522A95D5405E08D
:103C80001C2A01D00123D4E70126FBE701330A2BCC
:103C9000CFD1089D0135089523E725AB9B780722F6
:103CA0009343802B06D1386803681B6C9847494BB7
:103CB000984250D00026059802F0EEFC012502E063
:103CC0001E1C0B930325002422ABE25C002A2DD09E
:103CD000002C0DD139684AA80B68DB6B984700941B
:103CE000231C381C4B990B9AFFF778FC0124EBE757
:103CF000012C09D19C70DC701C715C719C71DC71B1
:103D00001C725C720224DFE7A300FB185B69002BC6
:103D10000CD039684AA80B68DB6B9847A31E009348
:103D2000381C4B990B9A0223FFF758FC01340A2CDC
:103D3000CAD1002E0CD039684AA80B68DB6B9847B3
:103D400000230093381C4B990B9A0123FFF746FC84
:103D500068B255B0F0BD396C002902D17A6C002AE6
:103D6000A8D000211E224AA802F0B8FC0021182287
:103D700034A802F0B3FC18222EA8002102F0AEFCF9
:103D8000002313AA5370137009930C2506930F9BFD
:103D90000D9A1098D218119910180A92069A431881
:103DA0000E909A4205D37D6C0395002D00D07DE2E4
:103DB000C3E20024261C3B19186C1CAB18510028C8
:103DC0000CD002F056FD1EABE050012214ABF254B1
:103DD00008E0C046E9140000A86A000014ABF054E3
:103DE0001EABE05001360434022EE4D10024A600BC
:103DF0002EABF058002808D03AABF05002F039FD55
:103E000040ABF05001221AABE2540134062CEED143
:103E1000002315AA5370137016AA5370137017AAB3
:103E20005370137004930893059825AB425D691C89
:103E30001A700391161E802E2CDD425C02351A701A
:103E4000131C13AA12780395002A02D1012117AA84
:103E500003E09A42FAD0002114AA117016AA012197
:103E6000117013AA5278002A05D09A4203D000227A
:103E700014AB5A7001E017AB5970089D012202354E
:103E80000895049D16AB5A70002D7BD125AB1B788D
:103E9000049377E0089801300890002A77D00699BB
:103EA0000D9A914203D2039DAD1903956AE00498DF
:103EB000002801D1EDB204950796079D0C2D00DD79
:103EC0000C25059A039B25A8D1182A1C02F0FDFB9E
:103ED000039807994019491B03900791002412ABDE
:103EE000E35C002B19D1502212196B46D25C0C9264
:103EF000002A12D0A2001CA95358002B0DD01EA8D6
:103F0000511825AB12180095381CFFF7C3FA0C9B0B
:103F10005021034009196A468B5415ABE25C002A14
:103F200002D114AAA25CE254002316AAA3540134BD
:103F3000022CD4D11C1CA3002EAA9A58002A18D0F7
:103F4000682000196946405C0C90002811D040AAF6
:103F50009958A9420DDB3AA819189A18009525AB73
:103F6000381CFFF797FA0C9B6821034009196A4631
:103F70008B540134062CDED1079D002D9DDC089D5D
:103F8000AD190895731E7F2B01D8039D4CE7069D44
:103F90000D98854202D2039D043580E1069D0A9862
:103FA000854203D3099D002D00D1FCE6059D0398B1
:103FB0000422291825A802F088FB039D06990A9A75
:103FC0000435914200D395E000231E1C13AAB15C76
:103FD000002903D10898291A0439B154B1001CAA48
:103FE0008A58002A00D180E014AAB25C002A03D0CB
:103FF0001EA8095800290DD015A9715C002903D00D
:1040000016A9715C002905D117A9715C00296CD033
:10401000002A6AD025AA1278002A66D16A4695320B
:1040200011780C22002E00D1012291425DD16A4606
:10403000963214787F22144057D16A46973212780C
:10404000012A52D112ABF254059A25A85119062221
:1040500002F03BFB26AB06351888049500F013FAF6
:104060000390002E10D104283BD1059B039A5919C7
:1040700025A802F02AFB381C396C25AAFFF7C3FCDF
:104080002FE00134062C2CD0A3002EAA9B580793B6
:10409000002BF6D1039D023D281C0A9502F0F2FA8E
:1040A000051E1ED00598049A81180B7825A8037068
:1040B000039B0131033B1A1C281C099302F005FBEA
:1040C00025A90B78099A934200DB47E10798E85449
:1040D000A2002EABD550049D640028ABE55201250B
:1040E000099504980399012345180136022E00D042
:1040F0006CE7C5E0069A0E9B9A4200D2C2E06B467E
:1041000095331B78212B49D10026B3002EAA9A584B
:10411000002A3FD00498002815D0720028A9525ACE
:10412000824210D1059A25A85119062202F0CDFA33
:10413000039D0A35049526AD288800F0A4F9041ED5
:10414000072C24D908E040AA9B58002B22D11AAB97
:10415000F35C002B1ED0E5E70598049A811808222D
:1041600025A802F0B2FA288800F08DF973002BAA76
:1041700098526B469A331A7818AB802A04D96A464B
:104180009B3212789A5502E0039D10359D55049B91
:104190001D1984E00136062EB7D173E0102B42D1F1
:1041A00000239E002EAAB258002A38D00498002876
:1041B00015D05A0028A9525A824210D1059A25A832
:1041C0005119062202F081FA039D26AB0A351888A0
:1041D000039500F058F9041E012C09D81CE040AAF0
:1041E000B258002A1BD11AAA9A5C002A17D0E5E718
:1041F00034A88059049000280ED1601C02F042FAC5
:1042000034A9051C885107D0059A039BD118221C9C
:1042100002F05BFA0498285503990D193FE0013329
:10422000062BBED12EE0012B2CD1002305210A1C28
:104230005A434AAE925D002A1ED1049A002A00D148
:10424000FF2259437254059A049125A85119062258
:1042500002F03BFA26AB1888039C00F014F90A34EC
:10426000051E042D1AD1049B2A1C0133F018059B4E
:10427000191902F02AFA11E00133062BD6D101E018
:10428000002B0CD1059825AC043541190222201CC5
:1042900002F01BFA208800F0F6F8841C2D1906990C
:1042A0000131069173E52E2B03D001352B78002BBD
:1042B000F9D100242C70A300069306982EABC358A6
:1042C0000493002B34D06A4618AB2A320021E65CF6
:1042D000FF320B1C501E0078B04205D10521594316
:1042E00054AA511827390CE0FF28F7D0002902D131
:1042F000002800D0111C01330532062BEAD1002919
:1043000016D03E6E002E13D03B1C58331B7820A8CD
:10431000089300F099FC2BAA63009B5A069800931F
:1043200034ABC358089901930398049A20ABB04763
:104330000134062CBFD12E232B7000242EABE05865
:10434000002807D002F0A8F934ABE058002801D0CB
:1043500002F0A2F90434182CF0D1ABE40A99079AC0
:104360006B18013B1A70B3E6F0B589B0041C00F07D
:10437000CDF90290201CFFF763FB251C4035002679
:104380002968002912D0029FA9687B1A002E5FD1EC
:10439000FA229200934206D9042300220092201CA4
:1043A000111CFFF71BF92B69002B1DD10136F6B24A
:1043B0000435022EE4D1029FE16B294B7A1A9A420E
:1043C0004BD90025AB00E318DB69002B06D0002198
:1043D0000095201C0A1C0223FFF700F90135082D67
:1043E000F0D1029FE76338E0029F9F42DED9002EA2
:1043F00005D1201C216C321CFFF705FB20E0216E4B
:1044000000291DD0676C3B1C1A78002A14D10022A9
:104410001A70236E06A80493231C58331B78059347
:1044200000F0FCFB002100910191381C059900224D
:1044300006AB049FB84703E02E2AE8D00133E3E738
:1044400028680028B2D002F027F900232B60ADE7DE
:10445000044A9342A7D905239FE709B0F0BDC0469F
:10446000905F01001027000007B500230093034868
:10447000191C1A1C00F0DAFB07BDC0466C020020B4
:1044800040BA80B2704740BA80B2704700BA7047F5
:1044900008B5FFF7FBFF08BD437A002B04D18372F8
:1044A000C372C36001234372704730B585B0041CEA
:1044B00002AD00680291039200F0A4FD6B79E179EE
:1044C000227A00932068002300F03EFE29792068BC
:1044D000029A00F067FD206800F08AFD05B030BD4B
:1044E00070B5041C1826FFF7D7FF2079331C43430F
:1044F0000D4D0821EB18595600F010FBA079331C24
:1045000043430821EB18595600F008FB6079082155
:104510004643AD19695600F001FB044B201C06CB45
:10452000FFF7C3FF70BDC046C86A000074020020D8
:1045300007B5837A00910192002B0DD09A0706D51A
:10454000EFF310835A425341C37272B604E0DA07A4
:1045500002D58289034B9A600099019AFFF7A5FF63
:1045600007BDC04600180040837A002B0BD09A0785
:1045700004D5C37A002B06D062B604E0DA0702D570
:104580008289014BDA6070470018004008B5006866
:1045900000F041FD08BD0000094B0A4A0A491A60B3
:1045A00000225A711A71094B1960162119711821CC
:1045B00099711721597101215A72D9711A72704774
:1045C0007402002000093D00240400207C02002029
:1045D00008B5024800F02EFE08BDC0468C0200203F
:1045E00008B5024800F026FE08BDC0465003002072
:1045F000F7B5164F1649381C00F064FC15491648EB
:1046000000F060FC1549164800F05CFC154916489E
:1046100000F058FC1549164800F054FC154D0326CF
:104620000124281C144900F04DFC391C0096231C61
:1046300001940022114800F0D9FD0096291C019434
:104640001F221E230E4800F0D1FDF7BD18040020E4
:1046500000080042000C00421C0400200010004230
:10466000200400200014004214040020001800421E
:104670002404002028040020001C00428C0200209A
:1046800050030020FEE7000008B5034B1B68002B19
:1046900000D0984708BDC0462C04002038B50F490B
:1046A0000F4CA14204D100F055F800F0F1FA0BE0F4
:1046B0000C4D8D42F7D00023CA18E818A24204D24C
:1046C000006804331060F7E7FEE79042EBD0064B3A
:1046D000064A9342E7D2002204C3F9E70000002013
:1046E000500100204470000050010020340A0020D6
:1046F00008B500F02CF8002801D100F01DF808BD25
:10470000014B18607047C0462C040020014B18680C
:104710007047C0463004002070B5041E08D0054B19
:104720001D681E1C00F012F833685B1BA342F9D30E
:1047300070BDC0463004002008B5034B1A68013232
:104740001A6000F085FB08BD30040020704700208F
:104750007047000070B5494A1E21536802208B4300
:104760000343474953608B69082423438B61454CBD
:10477000454B9C829C8A20439882101CDA689407DF
:10478000FCD5424A012414701478E50704D53F4C47
:10479000647864B2002CF7DB01249460547864B22E
:1047A000002CFBDB3A4D394C6560547864B2002C28
:1047B000FBDB8225354CED016580547864B2002C1A
:1047C000FBDB02249C84DC68E606FCD5314D2E4CD4
:1047D000E562DD682C4CEE06FBD5A58C2E4E3543EC
:1047E000A584DD68284CEE06FBD5A58C0226354352
:1047F000A584DC682506FCD5234CE4686606F8D55C
:10480000DC68E506FCD500249460547864B2002C82
:10481000FBDB224D1D4C656055781C4C6DB2002DA4
:10482000FADB1E6A1E4D35401D621D6A8026B543A7
:104830001D620323A3601B4B636053785BB2002BA4
:10484000FBDB00230B72184A4B728B72CB72174B37
:10485000FF211A60164B174A1B6812685C01D20EC2
:10486000214011439A06520F12020B1C1343124AA5
:104870001385436880221343436070BD00400041AC
:10488000000400400C06000000080040000C00403E
:1048900001050100B805FF7D040A000000070300C0
:1048A000FFFCFFFF03060100006CDC021400002087
:1048B000246080002060800000400042314BFA21DB
:1048C000186810B5890001F04FFE2F4B013898424F
:1048D00024D82E4A2E4B5060186AC0210002000ACC
:1048E0000906014319620024072194601160196AC6
:1048F00080220902090A12060A431A62254BFC218A
:104900001A6A0A431A62196AFC2292010A431A625D
:10491000196AA022D2020A431A6200E0FEE7201CB4
:104920000021013400F070F8142CF8D11A4C63788F
:104930005BB2002BFADB194B6380194B5A7ED2090C
:10494000012AFAD0E422D2009A803F22DA70597EFE
:10495000134AC9090129FAD0C0235B010020136161
:10496000907000F023F863785BB2002BFBDB0D4AFC
:10497000094B5A800C4BDA79D209012AFAD041222C
:104980005A7010BD14000020FFFFFF0010E000E08F
:1049900000ED00E000040040000C00401E4000005C
:1049A00000400042214000000048004200B5144A87
:1049B000517E131CC9090129F9D00138042813D8E4
:1049C0001969104A0A401A615A780F218A4301F086
:1049D000B7FD030509070300012102E0032100E000
:1049E00002210A435A700AE01169F0231B050B43A8
:1049F000136153780F218B4302210B43537000BD89
:104A000000400042FFFFFFF010B51824021C201CDC
:104A10005043274B1818007A40B2013046D0032982
:104A200044D8081C211C01F08BFD02331121624384
:104A300098569A18C3011F4852681B18991840319C
:104A4000022008700121914059602FE0624398567E
:104A500018499A185268C3015B189918403106200A
:104A6000087001219140596099611FE051435A56E5
:104A7000104859184B68D2011118C8184030062444
:104A800004700120984048600B49521850600DE0B6
:104A9000624398569A18C301064852681B18991821
:104AA00040310220087001219140996010BDC0463C
:104AB000C86A0000004400411044004118235843D4
:104AC000134AF0B5131808241C5701341FD082561E
:104AD000104ED2015D6801249019231C8668AB40FA
:104AE0001E420BD10E1C771EBE414019344040308F
:104AF000A50004780426B4432C430470002903D194
:104B000005495218536002E0024E92199361F0BDBC
:104B1000C86A00000044004110440041182242438A
:104B2000F8B52D4D0824AA181457031C621C50D048
:104B3000481C00240C284CD801F002FD071E1E1E44
:104B40001E1E1E1E1E0A0A0A0A000124644240E0BC
:104B5000092902D1181C002103E00A2904D1181CDC
:104B60000221FFF751FF23E000240B2931D1181C4B
:104B70000121FFF749FF2CE018225343EA1852683D
:104B8000EB560120141C04405508DB01002C11D009
:104B9000124C1B195D1930352E780C010F21314054
:104BA00021439A18C9B22970403213781843107003
:104BB00000240EE0094E0F279B195D1930352E7821
:104BC0009A18BE433143C9B2297040321378184352
:104BD0001070201CF8BDC046C86A000000440041A7
:104BE000F7B5002401900D1C261C019A281C1319EE
:104BF00019790A2200F019F92E21071C281C00F04F
:104C000097F80134C719F619032CEED1019B281C23
:104C1000D9790A2200F009F93018FEBD024B083399
:104C20000360002343607047186F000030B503AC89
:104C3000044D247808350560017142718371C47197
:104C400030BDC046186F000010B5044A041C08327D
:104C500004C0042201F039FD201C10BD186F0000B3
:104C600010B50422041C043001F02FFD201C10BDDF
:104C7000044A054B08321A6000221A715A719A715F
:104C8000DA717047186F000034040020704700008C
:104C900010B5FFF713FE01F0CFFCFFF7F7FF01207F
:104CA000FFF73AFD084C201C00F008FE201C00F025
:104CB0007DFEFDF79BFAFDF723FB044B002BFAD09A
:104CC00000E000BFF7E7C046070900200000000031
:104CD00008B501F0D7FC08BDF7B58A18061C0D1CF5
:104CE00001920C1C019B671B9C4207D03368217802
:104CF0001B68301C984701340028F3D1381CFEBDD6
:104D000008B50368C9B21B68984708BD38B5051CCB
:104D10000C1C081E07D001F0ACFD2B68021C5B6860
:104D2000281C211C984738BD08B5FFF7EFFF08BDC8
:104D300008B503681B68984708BD10B50A68041CCD
:104D40001268081C211C904710BD000008B50249DC
:104D5000FFF7DCFF08BDC046286F000038B5041C13
:104D6000FFF7D4FF051C201CFFF7F0FF281838BD03
:104D7000F0B58DB0161C0BAB002201900C1C1A7004
:104D8000012E00D80A266D462B35201C311C01F05F
:104D90002FFC201CCFB2311C01F0E6FB291C041CA7
:104DA000092F01D8303700E03737FFB22F70013DAF
:104DB000002CEAD10198FFF7A9FF0DB0F0BDF8B5BE
:104DC000041C0D1C161E04D10368C9B21B68984749
:104DD00012E00A2A0DD100290ADA2D21FFF7A8FFD7
:104DE0006942071C321C201CFFF7C2FFC01903E0F8
:104DF00000E0D2B2FFF7BCFFF8BD08B5FFF7DFFF58
:104E000008BD38B5041CFFF7DAFF051C201CFFF7AE
:104E10009DFF281838BD08B5002A02D1FFF770FFA2
:104E200002E0D2B2FFF7A4FF08BD08B5FFF7F3FF19
:104E300008BD0000014B18607047C04618000020F4
:104E4000024B012252421A607047C04618000020EF
:104E5000154A1368581C25D0013B1360002B21D143
:104E600072B6124A124B04329A4207D8BFF34F8FE0
:104E7000104A114BDA60BFF34F8F11E00F4B197DD1
:104E8000C807FBD5188B2021FF319208520001433F
:104E90001983DA610A4A1A801A7DD107FCD5E5E741
:104EA000C046FDE77047C046180000200020000003
:104EB000030200000400FA0500ED00E0004000419C
:104EC00002A5FFFF01607047F7B508AC26780468BB
:104ED0009D1E27686C1EA541ECB2920705683A43F7
:104EE00027063A432A600268072529405068B50121
:104EF000002C00D05C03294301430C435460F7BDF0
:104F000030B50368C0251C68AD0312052A40224352
:104F1000C024A402090421401143196003685A689F
:104F200014435C6030BD036801211A680A431A60AB
:104F30000268116801231942FBD1D1691942F8D1E5
:104F40007047036802211A680A431A600268D3692D
:104F50009907FCD4704703681A7ED10702D41A7EE1
:104F60009107FCD57047036800225A837047036895
:104F7000187E4007C00F70470368187EC00970474D
:104F800003688022197E52420A431A7670470368EA
:104F9000188DC0B2704703681A7E01200242FBD010
:104FA0001985704770B5036801268D07ED0F3140F4
:104FB0001C686D07090729432143196004685100E3
:104FC000034801F0D1FA0138C0B2207370BDC04669
:104FD000006CDC02036801211A680A431A60026847
:104FE000116801231942FBD1D1691942F8D17047E8
:104FF000036802211A680A431A600268D369990794
:10500000FCD470470368DA699107FCD41A6802215E
:105010008A431A60704703689A6A520A520211431F
:10502000996203681A7E5107FCD5986AC0B270472E
:105030000368224A30B5934211D0214A934211D0DD
:10504000204A934211D0204A934211D01F4A9342E2
:1050500011D01F4A934230D10E2319220DE00923AB
:1050600014220AE00A23152207E00B23162204E08B
:105070000C23172201E00D231822DCB21549012070
:105080009B08A0409B0008605B180320C02189009A
:1050900004405D58E000FF248440A5432C1CC0253B
:1050A0008540281C204358508023DB011A430A4BBB
:1050B0005A805A7852B2002AFBDB30BD0008004209
:1050C000000C004200100042001400420018004290
:1050D000001C004200E100E0000C0040F8B5041C98
:1050E000151C0E1C1F1CFFF7A3FF201CFFF71BFF46
:1050F000B1001C220A4069072368090C0A431A60A0
:10510000226884239375012E1AD10821012D00D124
:1051100010210C4B79431868C00001F025FA236870
:1051200007219A890140D2044903D20C0A439A818B
:1051300023680004C20C9889400B400310439881F7
:10514000F8BDC04614000020F7B5019308AB041C5D
:105150001F780D1C161CFFF73DFF201CFFF768FF92
:10516000BF070C221743C022920336051640C02207
:1051700092022D0423683E430199154035430722CE
:105180001D600A408021236889020A435A60F7BDE6
:105190000120704708B50368014ADB69984708BDDC
:1051A0001304000010B5041C0069FFF7BCFE201CAE
:1051B000143001F03CF910BD08B50069FFF7CBFED3
:1051C00008BD08B5143001F04DF908BD08B514301C
:1051D00001F051F908BD08B5143001F02FF908BDF0
:1051E00008B50069FFF7D7FE012008BDF7B51D1C03
:1051F00008AB1B78041C009309AB1B78161C0193A9
:1052000000234360FA239B008360094B0F1C083383
:105210000360143001F0ECF8009A231CC0332761BE
:105220009A70019A1E705D70201CDA70FEBDC04637
:10523000386F000010B5041C0069FFF798FE0028C5
:1052400007D02069FFF7A3FE011C201C143001F0D9
:10525000DCF82069FFF790FE002805D02069FFF7F1
:105260008FFE2069FFF77FFE10BDF023081C184059
:105270003038434258417047F0231B0119408023C6
:105280009B0099420CD0C0239B00994206D08023FA
:105290005B000520994204D0002002E0072000E0D6
:1052A000062070470F231940012905D002394B42CF
:1052B0004B410220C01A00E000207047F0B5031CEB
:1052C00085B00391C033041C182718783B1C434356
:1052D0001B4E0821F3185956151CFFF71FFC231C01
:1052E000C133187808214743F6197156FFF716FCA9
:1052F00001210A1C039B2069FFF7F0FE291C201CDA
:10530000FFF7BAFF291C071C201CFFF7CBFF291C45
:10531000061C201CFFF7A9FF391C0090331C2069D4
:105320000122FFF7D1FD231CC3331978013B1A7802
:105330002069FFF7E5FD2069FFF703FE05B0F0BD2A
:10534000C86A00003F20704713B502686B46D971E8
:1053500007335468191C0122A04716BD08B500691F
:10536000022100F027FC08BD08B50069032100F008
:1053700037FC08BD38B50D1C041C131C0069032143
:105380002A1C00F029FD002801D10123636038BDEB
:1053900010B5054C23685A1C04D10368DB68984794
:1053A0002060031C181C10BD6C000020074A08B5C3
:1053B0001368591C04D0012149421160181C03E0F4
:1053C0000069022100F0FAFC08BDC0466C00002014
:1053D00008B503780349023303704222024800F003
:1053E000B1FD08BD280000200709002010B5017894
:1053F000031C42780020A12908D1212A2FD1184866
:105400001849072200F09EFD012028E0212926D11D
:10541000202A05D113490722114800F027FC04E097
:10542000222A10D19A780F4BDA710E4B9622196806
:10543000D200914210D1DC7901231C400CD1FA201A
:10544000FFF7F8FC0AE0232A09D1DA789B781202E8
:105450001A43054B1A6002E0FFF7F2FC002010BD72
:10546000070900201C0000202400002070470000D5
:10547000064BFA218900996005490022083119601C
:1054800004495A6019611A767047C0463C040020EE
:10549000686F00000709002070B5C2B219495301B6
:1054A000CB189E68184DC0242E40A40526439E604C
:1054B000164E800109683018083258605201505C5D
:1054C0000726B0430126304350549E6935402C4393
:1054D0009C610F4C5C61505C7024A04310242043FD
:1054E00050549C680B488A18204080246403204351
:1054F000986098684021800B8003986053790B4333
:10550000537170BD10090020FFFFFF8F2807002096
:1055100064050020FF3F00F038B5041C08CC0121D1
:105520001A78051C0A431A708022201C00215200A0
:1055300001F0D4F82B689A78D107FCD45C6238BDAE
:10554000134BF0B51B6899035A029B01C90ED20E8A
:105550005B0F1F2900D105211F2A00D11D22072B17
:1055600000D1032304688E01278D0A491F25394085
:105570003143218501682A400C8DAC4322430A85C2
:1055800002681903108D044B03400B431385F0BDD3
:10559000246080003FF8FFFFFF8FFFFFEFF31083D1
:1055A00003600123436072B670470368002B02D189
:1055B00062B6BFF36F8F704737B50569041C684644
:1055C000002D12D1FFF7EAFF019B013B03D3621DBF
:1055D000D57FEDB2F9E768460193FFF7E6FF0020BB
:1055E000854217D0206AE36913E0FFF7D7FF019BDC
:1055F0000025013B04D3221C34321578EDB2F8E7C4
:1056000068460193FFF7D1FF0020854202D0206B4E
:10561000E36AC01A3EBD0000436810B51A68037AF9
:1056200001215B01D318FF339A7A0A439A72037AF5
:1056300042685B01D318C2689C6891040B4A09094F
:1056400022400A439A60037A42685B01D3189A6841
:105650004021920B92039A6043681A68037A0833D8
:105660005B01D3181A790A431A7110BDFF3F00F08D
:10567000F7B50569041C0E1C171C6846002D1FD1C8
:10568000FFF78CFF019B013B5A1C06D0621DD17FA6
:105690005A1E00293AD0131CF6E768460193FFF71B
:1056A00084FF0025E369BD4235D0226A934232D29D
:1056B0005A1CE261A269D3181B7873550135F1E7D2
:1056C000FFF76CFF019B013B5A1C08D0221C3432AF
:1056D00015785A1EEDB2002D18D0131CF4E7684659
:1056E0000193FFF762FF0025E36ABD4226D0226BDB
:1056F000934241D322E0621D0021D17730321678E7
:10570000581E8E4214D1031C5A1CF4D168460193D2
:10571000FFF74BFF38E0226A934235D10023E36163
:10572000012323616846FFF739FF019B013BEBE74B
:105730001170201C0193FFF76FFFF6E7226B934275
:1057400022D10023E36223616846FFF727FF019B14
:10575000013B5A1CDAD0221C343200211170013274
:105760001678581E8E4201D1031CF2E71170201CDE
:105770000193FFF751FFEAE75A1CE262A26AD318CD
:105780001B7873550135AFE7281CFEBD37B543685C
:10579000027A1B68083252019A18041CD07901233E
:1057A000FF21184253D0D371A06865696268014037
:1057B000002D20D149015218916863618904890C38
:1057C0002162A16A68465160621DD377FFF7E6FE49
:1057D000019B013B5A1C33D0221C34321178581ED5
:1057E000C9B20132002903D001930123137023E0D1
:1057F0001170031CEEE74B01D3189A68A569920457
:10580000920C22630022626168465D60FFF7C6FE6B
:10581000019B013B01E011702B1C591C10D0221C74
:10582000343201201070621DD17F5D1EC9B230324A
:105830000029F0D0019310706846FFF7B6FE06E02D
:1058400068460193FFF7B1FE201CFFF7E5FE37BD68
:1058500037B500236C46E3710734201C0D1CFFF79D
:10586000B7FD2B681818286000F058FE211C00F0C6
:105870000FFE2B681818286020783EBD03290BD135
:105880000D4BB2221B685200985C802149420143B3
:105890009954022168220CE001290CD1064B922276
:1058A0001B685200985C80214942014399540221AF
:1058B0002822FF32995470471009002038B5304B28
:1058C00000240121051C1A201C70FFF79DF81A20E6
:1058D0000121FFF7F3F82B4B192001211C70FFF772
:1058E00093F819200121FFF7E9F8274B2021DA6905
:1058F00001200A43DA61254B06241A7802431A7004
:10590000234B0F221978914319701978214319708C
:1059100020490C782043087019780A401A701A78C8
:1059200060210A431A701C4B1C4A5A805A78D209CB
:10593000FCD11B48FEF7E4FE1A4C201CFFF7ECFDDF
:10594000201CFFF7FDFD23687F2219780A401A709A
:105950001A7804210A431A701A890C218A431A8181
:10596000C121114A890050580002000A505080217C
:1059700011601A7802210A431A7001232B7038BD76
:10598000240700200C090020000400405844004176
:105990003C44004159440041000C004006400000D6
:1059A000D16300001009002000E100E00078002829
:1059B00010D0094B01211B681A898A431A811A8B5E
:1059C00008210A431A831A8B04210A431A83034BC2
:1059D00000221A607047C04610090020140A0020F7
:1059E0000F4B9A69920B92039A611B680222FF3354
:1059F0001A7298798022524202439A711A7A900759
:105A0000FCD5084B081C997A7F2210409143014332
:105A10009972997A802252420A439A727047C0461C
:105A2000100900200050004110B50B790C1C002B10
:105A30000BD1081CFFF7DAFC002804D1094B9A6946
:105A4000920B92039A6101200BE000F067FD211C8C
:105A500000F052FD0028F6D1024B9A69920B920396
:105A60009A6110BD10090020F8B50D1C832A16D1CB
:105A7000CAB242495301CB189C694148AD0120404C
:105A8000C024A405204398613E48083245195D6151
:105A90000B685201D15C70208143402065E0022AEE
:105AA00045D13820FFF714F9374B344F8026036077
:105AB00076000023421D036203614361C3614760B6
:105AC0008560C660D3772F32041CC36203631370F2
:105AD000301C537000F0D6FDA061301C00F0D2FDE8
:105AE000FF232A1C1A405201A062BF18B968244A39
:105AF00007260A40C02189050A43BA60A168626886
:105B00001940126808314901885CAD00B043032692
:105B100030438854A16862680B405B01A169D318C7
:105B20005960201CFFF778FD184BEC5025E0822AC5
:105B30001ED1CAB211495301CB189C691048AD015E
:105B40002040C024A405204398610E48083245191E
:105B50005D610B68520199180C7980204042204306
:105B60000871D15C7020814330200143D15404E09E
:105B7000002A02D1081CFFF78FFCF8BD1009002095
:105B8000FFFFFF8F64050020986F0000E8080020E9
:105B900038B5051C0124064BA200D258002A06D0B5
:105BA000211C281C0134FFF75FFFE4B2F3E738BD86
:105BB0007000002008B5084B8A00D058002803D098
:105BC00003689B68984706E0C9B2044B490159181D
:105BD00088688004800C08BDE808002010090020B7
:105BE00010B50C1CFFF7E6FF00280CD0064BE1B205
:105BF0001B680831490159184A7980235B421343D5
:105C00004B710223CB7110BD1009002070B5CAB2D0
:105C1000134B1448540189015918031959609D68A0
:105C20001149083229408025AD02294399609968BD
:105C30004026890B890399600368510159180D7931
:105C400035430D715101591889794D06FAD5510125
:105C50005918C979CD07FAD50419A068C0B270BD2A
:105C60002807002010090020FF3F00F038B50C4B3A
:105C7000141C1B680D1CFF335A7940210A435A71CA
:105C80000021FFF7C3FFA04200D9201C0023A3423C
:105C900004D0044A9A5CEA540133F8E738BDC046A0
:105CA000100900202807002010B5C9B20C4849018E
:105CB00043189A689204920C3F2A08D9141C9A68D7
:105CC000403CA404920BA40C9203224302E09A6885
:105CD000920B92039A6041188868C0B210BDC0460A
:105CE00010090020F0B51C1C2F4B85B01B68061C4A
:105CF0000D1C0292002B51D02C4F3978C9B20029CB
:105D000002D11920FEF7DAFE64233B70284BAA006B
:105D1000D058002805D0036802995B68221C984778
:105D200040E0301C291CFFF745FFA04204D2301C84
:105D3000291CFFF73FFF041C291C301CFFF7B4FF90
:105D40001C4FE9B24A010191396803928B18FF3365
:105D50005A7A01210A4318495A72AB01C9180298AC
:105D6000221C00F0B2FC002C1BD0301C291CFFF7B9
:105D700021FF002815D1019B3A6808335B01D31835
:105D800019794020014319710121D97103995318E0
:105D9000FF339A7A01210A439A7202E001204042BD
:105DA00000E0201C05B0F0BD140A00200C09002002
:105DB000E8080020100900202807002013B56C46D1
:105DC0000734221C0123FFF78DFF012801D1207821
:105DD00001E00120404216BDF0B51C1C3F4B85B0D0
:105DE0001B680E1C0292002B6AD08023DB019C42B0
:105DF00066D83B4D2978C9B2002902D11A20FEF796
:105E00005DFE642300222B700092002C56D0354D8D
:105E1000F7B22B6801933B1C0833019A5B01D3183E
:105E20009B79DB091AD0304B3049186800F09CFB95
:105E30002F4B1721584300F097FB3B1C0833019A66
:105E40005B01D318DB799A0708D42A4B9A5D002AA4
:105E500038D1421E002835D0101CEEE7254B002219
:105E60009A55251E3F2D00D93F25234AB301D3184B
:105E7000181C02992A1C039300F027FC194A7B0185
:105E8000D318039AA9045A619A69890C920B920358
:105E90000A439A613B1C019A08335B01D318022222
:105EA000DA715979802252420A435A71009B029A50
:105EB0005B1952190093641B0292A6E700980BE04D
:105EC000012008E001229A557B01ED18AB69101CF6
:105ED0009B0B9B03AB61404205B0F0BD140A002050
:105EE00024070020100900201400002040420F0069
:105EF000701101005C0500206405002070B50E4D96
:105F00001C1C8B01ED18281C0E1C111C221C00F0FF
:105F1000DCFBF6B20949760189194D618A69084BA3
:105F2000201C13408B618B69A2049B0B920C9B037A
:105F300013438B6170BDC04664050020100900202A
:105F4000FF3F00F0F7B5114B01901B780F1C141C9C
:105F5000002B19D10E4B1E78002E01D1151C08E024
:105F60000C4D0D482E888019361900F0AEFB2E809E
:105F70000AE0002D08D0BA192B1C01980021FFF768
:105F8000BDFF36182D1AF4E7201CFEBD06090020BF
:105F9000040900205A05002059040020F8B50E1C01
:105FA00000AF151E012D28D9D31DDB08DB006A4682
:105FB000D21A9546081C00F05CFC01306C4640008B
:105FC0000323207063700222AA420ED23378002B82
:105FD0000BD0511CC9B20136A354A94204D00023EE
:105FE00002326354D2B2EFE72A1C0548211CFFF7A6
:105FF000A9FF431E9841C0B200E00020BD46F8BD95
:106000000709002008B5044B00221A70034B04490D
:106010001A88FFF797FF08BD040900205A050020E1
:1060200059040020F0B5204A87B0012300260091D2
:1060300002A91370051C0296FFF70AFC03AC09279E
:1060400001903A1C201C311C00F048FB02236370B5
:10605000A023E371FA232372029B0122DB196380E0
:10606000019B62712371104A009B27701670BB421E
:1060700005D1281C211C1A1CFFF764FF11E00B4BF3
:1060800001221A700A4B211C3A1C281C1E80029601
:10609000FFF758FF281C02A9FFF7DAFB281CFFF7BF
:1060A000B1FF012007B0F0BD06090020040900205F
:1060B0005A05002070B5CE788AB0051C0C1C022E43
:1060C00008D1C9882348FFF7ADFF031C581E834140
:1060D000D8B23DE000F022FA211C00F0EEF90028D1
:1060E00003D0C3171B1AD80F32E0012E04D1E28867
:1060F0001949112A27D823E0032E29D1A278002A92
:1061000005D11649E2880B78934219D81BE0022A80
:1061100003D1A279281C124904E0012A05D1A279F1
:106120001049281CFFF73AFF12E0032A10D100F0B3
:10613000F5F901A900F0D1F9A279281C01A9F1E72C
:10614000D2B2002A00D10A78281CFFF7FBFE0120FA
:106150000AB070BD07090020C46F0000C06F0000C6
:10616000D66F0000A86F000073B5051C48780C1CA2
:106170000B2878D800F0E4F9081C7728773E43060E
:10618000474B686F00206FE0097801AA002903D10E
:1061900011705170281C09E0002313705370334BA9
:1061A0001B78012B00D11370281C002102234FE023
:1061B0008A780023012A04D101AA137053702C4B52
:1061C000EEE72A4A137049E08E78012E07D1284B5A
:1061D00001AA00211E701170281C331C38E0002E0B
:1061E00008D1224A01231370224A9169890B89033D
:1061F000916138E0A178281CFFF7F2FB33E0281CFE
:10620000FFF758FF30E0281C00211B4A1FE00A78E6
:106210000020D30628D1281CFFF7BAFCA278154924
:10622000154B02241A600A682A23FF33D05C2043EE
:10623000D0544A20FF30145C01231C4314548A6953
:10624000920B92038A610EE00C4A281C0021012364
:10625000FFF754FE07E08A78084B1A60054B9A69ED
:10626000920B92039A61012076BDC046580400202B
:106270000509002010090020140A00200809002048
:10628000F8B54B4B071C1C78002C00D08EE0494D14
:106290002868838B19070DD5201CFFF7FDF82B68A4
:1062A00010201A1CFF32917A01439172424A146005
:1062B00008229A832B689A8B50071FD504229A8351
:1062C0003E4B1A78002A0AD01A78013AD2B21A70D4
:1062D0001B78002B03D11A200121FEF7EFFB384B6E
:1062E0001A78002A0AD01A78013AD2B21A701B78AA
:1062F000002B03D119200121FEF7E0FB2B68FF33AF
:106300001A7AD10626D510221A725A7940210A43E8
:106310002C495A710A786023381C1A4202D1FFF7BF
:1063200023FF01E0FFF780FB002806D02B688022C6
:10633000FF33997952420A4301E0234B20229A719C
:106340002B68FF331A7A500604D540221A72597A04
:106350000A435A722968FE230E8C00241E40E1B2C3
:10636000002E23D0321C012322411A4216D0221CB7
:106370002868083252018218D079184203D1D279A4
:10638000DA401A4207D0114BA200D058002809D099
:1063900003681B6898470123A3409E430134092CDE
:1063A000DDD103E0381CFFF769FAF4E7F8BDC04619
:1063B0000409002010090020140A002024070020EE
:1063C0000C09002028070020FF500041E8080020A9
:1063D00008B50248FFF754FF08BDC0460709002072
:1063E000014A024B1A60704700500041100900201A
:1063F00010B50021041CA42200F070F9221CA43264
:106400000023201C1360536010BDF8B5051CA43593
:106410002E68041C0F1C701CA42100F0E9F8231C3A
:10642000A8331B68994201D0A7552960F8BD021C0A
:106430000023A432A83013600360704738B5021CF3
:10644000041CA834A43223681268934207D0C55CA8
:10645000A421581C00F0CCF8281C216001E0012088
:10646000404238BD031CA433A8301A680368D01A10
:1064700000D5A4307047031C021CA833A4321B684B
:106480001268934201D0C05C01E001204042704795
:1064900070B544680E1C0025002C09D02368201C10
:1064A0005B68311C9847002804DB2D18E468F3E78B
:1064B000281C01E00120404270BD38B544680D1C25
:1064C000002C08D02368201C9B68291C98470028B2
:1064D00002D1E468F4E7201C38BD38B544680D1CCF
:1064E000002C07D02368201C291CDB689847E4682F
:1064F0002D18F5E72C7038BD38B544680D1C002CFC
:1065000008D02368201C1B68291C9847002803D149
:10651000E468F4E7201C00E0012038BD064B0122AE
:10652000196810B51140054805D1022404700424EF
:10653000447041601A6010BD200A0020180A002033
:1065400002B4714649084900095C49008E4402BC06
:106550007047C04603B47146490840004900095AD3
:1065600049008E4403BC7047002934D00123002227
:1065700010B488422CD301242407A14204D28142C2
:1065800002D209011B01F8E7E400A14204D28142D2
:1065900002D249005B00F8E7884201D3401A1A434F
:1065A0004C08A04202D3001B5C0822438C08A04286
:1065B00002D3001B9C082243CC08A04202D3001B3C
:1065C000DC082243002803D01B0901D00909E3E7B6
:1065D000101C10BC7047002801D00020C04307B435
:1065E000024802A14018029003BDC04619000000F5
:1065F0000029F0D003B5FFF7B9FF0EBC4243891A5A
:106600001847C0467047C04608B5031C081C191C33
:1066100000F002F808BD000038B5051C05480C1C48
:10662000131C002804D00220291C221C00E000BFFB
:1066300038BDC0460000000070B50E4B0E4D002462
:10664000ED1AAD101E1CAC4204D0A300F3589847BD
:106650000134F8E700F02EF9084B094D0024ED1A3B
:10666000AD101E1CAC4204D0A300F358984701346F
:10667000F8E770BDFC000020FC000020FC000020BA
:106680003C01002008B5034B011C186800F076F8A7
:1066900008BDC046F800002008B5034B011C18686F
:1066A00000F024F808BDC046F800002030B50023F3
:1066B000934208D0C55C0133CC18013C2478A54234
:1066C000F6D0281B00E0002030BD10B50023934217
:1066D00003D0CC5CC4540133F9E710BD031C82180D
:1066E000934202D019700133FAE7704730B50029A0
:1066F00040D004390B68002B00DAC9181E4A136811
:10670000141C002B02D14B60116033E099420FD270
:1067100008680A189A4205D113685268C0180860C0
:106720004A6000E04B60216024E08A4203D8131CD9
:106730005A68002AF9D11D685C198C420BD109688E
:10674000691858181960904214D1146852680919D0
:1067500019605A600EE08C4202D90C23036009E0F4
:1067600008680C18944203D1146852680019086034
:106770004A60596030BDC046280A002070B5032326
:10678000CD1C9D430835061C0C2D01D20C2501E0C3
:10679000002D3FDB8D423DD3204B1C681A1C211C71
:1067A000002913D00868431B0DD40B2B02D90B60B2
:1067B000CC181EE08C4202D1636813601AE048686E
:1067C00060600C1C16E00C1C4968E9E7144C20685A
:1067D000002803D1301C00F025F82060301C291C53
:1067E00000F020F8431C15D0C41C03239C438442B2
:1067F0000AD12560201C0B300722231D9043C31AA9
:106800000BD05A42E25008E0211A301C00F00AF87E
:106810000130EED10C233360002070BD280A002027
:10682000240A002038B5074C0023051C081C2360EF
:1068300000F026F8431C03D12368002B00D02B6006
:1068400038BDC046300A002010B5021C1378002B5A
:1068500001D00132FAE7CC5CD4540133002CFAD1D8
:1068600010BD031C0A7801311A700133002AF9D1D6
:1068700070470023C25C0133002AFBD1581E7047C9
:10688000094A1368002B0CD018186946884202D8B0
:106890001060181C7047054B0C2201201A60404202
:1068A000F8E7034B1360EFE72C0A0020300A0020C2
:1068B000340A0020F8B5C046F8BC08BC9E467047B4
:1068C000F8B5C046F8BC08BC9E46704746696E697C
:1068D0007368656420646973636F766572696E6757
:1068E000207365727669636573206F6620747970B2
:1068F000652000466F756E643A202700272061747A
:1069000020002C20706F72742000202854435029DE
:106910000009747874207265636F72643A20002CE9
:1069200020004D7920495020616464726573733A88
:10693000200061726475696E6F005F6D7174740020
:10694000456E7465722061206D444E5320736572EC
:1069500076696365206E616D652076696120746873
:10696000652041726475696E6F2053657269616C50
:10697000204D6F6E69746F7220746F206469736349
:106980006F76657220696E7374616E636573006FF4
:106990006E20746865206E6574776F726B2E00458B
:1069A00078616D706C65732061726520225F687418
:1069B0007470222C20225F6166706F76657274633A
:1069C0007022206F7220225F7373682220284E6F1E
:1069D00074652074686520756E64657273636F7288
:1069E0006573292E00446973636F766572696E67FB
:1069F000207365727669636573206F6620747970A1
:106A0000652027002720766961204D756C74692DFB
:106A10004361737420444E532028426F6E6A6F7531
:106A200072292E2E2E0001005E00000000000000E2
:106A3000000000000000000071290000DB290000B8
:106A40006D290000F52900004D2A0000852900006D
:106A5000BD2A0000092B00009D290000C12900006B
:106A6000F92B0000D12900006D2A0000212A000026
:106A70004D2900005929000069290000000000008C
:106A8000696E20626567696E4D756C7469636173C8
:106A900074206C6962726172696573002E5F746341
:106AA000702E6C6F63616C005F73657276696365ED
:106AB000732E5F646E732D73642E5F7564702E6C1D
:106AC0006F63616C00000000000000000B0000001C
:106AD0000200000004000000FF00FFFFFFFF0B00AA
:106AE000000000000A000000020000000400000096
:106AF000FF00FFFFFFFF0A00000000000E00000083
:106B00000800000004000000FF00FFFFFFFF0E0070
:106B10000000000009000000040000001C0000004C
:106B2000FF00010001000900000000000800000053
:106B3000040000001C000000FF0000000000100026
:106B4000000000000F000000040000001C00000016
:106B5000FF00010301030F0000000000140000000B
:106B6000050000002C000000FF00020002000400ED
:106B700000000000150000000800000004000000F4
:106B8000FF00FFFFFFFF05000000000006000000FF
:106B9000040000001C0000000600000100010600C7
:106BA0000000000007000000040000001C000000BE
:106BB00007000101010107000000000012000000B1
:106BC000040000001C000000FF000003000302009E
:106BD0000000000010000000040000001C00000085
:106BE000FF0000020002000000000000130000008F
:106BF000050000002C000000FF000300030003005C
:106C00000000000011000000040000001C00000053
:106C1000FF0001020102010000000000020000006C
:106C200001000000020000000000FFFFFFFF020063
:106C30000100000008000000010000001800000032
:106C40000200000400040800010000000900000028
:106C50000100000018000000030001040104090005
:106C6000000000000400000001000000000000001F
:106C70000400FFFFFFFF040000000000050000000B
:106C800001000000000000000500FFFFFFFF0500FD
:106C900001000000020000000100000000000000F0
:106CA0000A00FFFFFFFF02000000000016000000C6
:106CB0000200000004000000FF00FFFFFFFF0600CD
:106CC00000000000170000000200000004000000A7
:106CD000FF00FFFFFFFF0700000000000C000000A6
:106CE0000300000004000000FF00FFFFFFFF0C0096
:106CF000010000000A000000030000000400000082
:106D0000FF00FFFFFFFF0A00010000000B00000072
:106D10000300000004000000FF00FFFFFFFF0B0066
:106D200001000000030000000B0000000400000050
:106D3000FF00FFFFFFFFFF00000000001B0000003E
:106D40000B00000004000000FF00FFFFFFFFFF003A
:106D5000000000001C000000060000000000000011
:106D6000FF00FFFFFFFFFF00000000001800000011
:106D70000600000000000000FF00FFFFFFFFFF0013
:106D800000000000190000000600000000000000E4
:106D9000FF00FFFFFFFFFF000100000016000000E2
:106DA0000300000000000000FF00FFFFFFFFFF00E6
:106DB00001000000170000000300000000000000B8
:106DC000FF00FFFFFFFFFF000000000016000000B3
:106DD0000200000000000000FF00FFFFFFFFFF00B7
:106DE000000000001700000002000000000000008A
:106DF000FF00FFFFFFFFFF00000000001300000086
:106E00000200000000000000FF00FFFFFFFFFF0086
:106E10000000000010000000020000000000000060
:106E2000FF00FFFFFFFFFF00000000001200000056
:106E30000200000000000000FF00FFFFFFFFFF0056
:106E4000000000001100000002000000000000002F
:106E5000FF00FFFFFFFFFF00000000000D0000002B
:106E6000040000000C000000FF000100FFFF0D0007
:106E70000000000015000000050000000C000000EC
:106E8000FF000300FFFFFF000000000006000000FD
:106E9000040000000C000000FF000001FFFFFF00E5
:106EA0000000000007000000040000000C000000CB
:106EB000FF000101FFFFFF000000000003000000D1
:106EC0000100000002000000FF00FFFFFFFFFF00C5
:106ED00000000000020000000100000002000000AD
:106EE0001400FFFFFFFF020000000000060000008A
:106EF0000100000002000000060000010001060081
:106F00000000000007000000010000000200000077
:106F1000070001010101070000000000000000005F
:106F2000E14B0000000000000D0A006E616E006978
:106F30006E66006F76660000000000000000000032
:106F4000E1510000D94C0000C3510000D7510000AE
:106F5000CD510000B951000095510000BD52000014
:106F6000A551000091510000000000000000000049
:106F700049530000755300005D530000AD530000FD
:106F800091530000695300004553000000000000C9
:106F900000000000000000008D5700007156000046
:106FA000B955000000000000416E6964656120452C
:106FB0006E67696E656572696E6720496E632E0043
:106FC0000403090412010002EF0201409A230B801E
:106FD000000101020301465834353000430000002F
:106FE00000000000000000000000000000000000A1
:106FF0000000000000000000000000000000000091
:107000000000000000000000000000000000000080
:107010000000000000000000000000000000000070
:107020000000000000000000000000000000000060
:107030000000000000000000000000000000000050
:04704000000000004C
:107044000000000090A2DA0E94B60A000176E00077
:1070540000FB000040420F00FFFFFFFF00C20100E1
:1070640000000800FFFFFFFF080B000202020000FF
:107074000904000001020200000524001001042498
:107084000206052406000105240101010705810308
:1070940010001009040100020A00000007050202A2
:1070A400400000070583024000000000FFFFFFFFCF
:1070B40000000000830000000200000082000000C5
:1070C40000000000000000000000000000000000BC
:1070D400000000000000000000000000E06F00005D
:1070E400007000002070000000000000000000009C
:1070F4000000000000000000DC6F00000000000041
:10710400000000000000000000000000000000007B
:10711400000000000000000000000000000000006B
:10712400000000000000000000000000000000005B
:10713400000000000000000098000020DD20000096
:10714400BD22000081230000F1230000F12800008B
:107154001D29000035290000552C00006D2C00006D
:10716400F53100006944000099450000F145000034
:10717400714C000071540000E1630000B520000070
:1071840000000000000000000000000000000000FB
:040000030000469D16
�  �  �  �                              �          �  �  �L#x +�K +�H � �##p�\       �  �K +�HI � �Hh +�K + ИG��F    �  `   X       ��i���h$�C`�i#B��h#C`h����i#B���i�@B��KC`�iZ���#�C`���i���h"C`�  @~����pG  ~#Q��B�B�B��@B�B��B�K"p ���pG�Fx   p�h��!�2B(И�MC� ���r#Sp@!K�qPq^h� .@�C^`^i5@(CXaH`Ha]hH(@�%�(CX`Xh��X` #Qq#q�z��  ��� yp������  �     �? � #qCqK`�`x"CppG�F9  8�6K !�i 
C�a4K$xCp2K"x�Cpx!Cp/Ix Cpx
@px`!
Cp+K+JZ�ZxR� *��)K!x
Cp�x���&HhQ"@�B �!@��"I)@!C�h�
@* �"�!
@�C"C�h!�
@�B �"
@�J@
C�x"
@px!H
CpXb�!�C��!�C� !�"��8�  @XD A<D AYD A  @@   P A$`� ?��������  ��#J_��Xi'@ @03�@��"Yh
CZ`	�/{�AK��8"����H5BaRi����
CZaYiJ 
@Zak��y"@C�y�C
C�qYy�"RB
CZqk��y��� ���    �? ���N3x +�KJdZl��ZdXlJ@Zd�#[ �\@ C�T#3pH'�7�]#@�KZl���B�]l��*I�h��]#@!
C�]�CC�U #3p �(��y   �  �   �? ��0�y0#�C " ) �"C�qpGK�0Zi!��Zaz#@
Cz�CCr�y�#[BC�qz���pG�F�  �#[BCɲ�rpGp��#"[ �TKJ\l�!@�CF%\d�5@$DUM0&d�%m FU]k@)C�%Ycm �!AU	Mc�%m DU\o"@Zg�#[ �Tp��F�  �����   T  0�6J#Qh �C#CQ`3I�iC�a2H2J����C���h���/K px��,H@x@� (�� �`Xx@� (��(L&HD`Xx@� (�ۂ$#H�D�Xx@� (�ې��$�C���h���LH�b�hH��Մ�M,C���hH��Մ�%,C���h��H�hE���h��� "�`ZxR� *��H
JP`ZxR� *�� #rKr�r�r0��F @ A  @    @  @ ��}
    ���
������������JH8��B�JK�B�
�
L�B�� #��B���X3
`�� �M��B�� !�����    \   �  \   �  J���$1��K� �B��� !�I $W`C� ����,���� �p $_ (�  � p� 	I��a� ![^�Bр"K�Za��Fz   |        D A8��"+K��`Za*Jx"@)K " )
�h'J�B�`�`%J: *��`$KhP
�ز (
р ��a����"�CJ�`KhG����b� ��� ����#��a �����h(�GK (�"px *�   �6� ����x +�� �P� (��  �)� ���� D A8 @�  5�sH�      � �~   ��h �0z�J!Cr�Ox�I;pSx�Np�x3��x3�	C3�y�K�Qy�	C��y�I��y�:C
�@"Bq�H�Ox8x�OC�B љ�܀!I �B �X�܁*jЂ*nЀ* �P�d�#[ �B ѯ� �#��#� �B �C�K�B ��>�#�BB���#� �B"Ј#�BBР#� �B �,� ����1�(h������'�K�B ��� ��K�B ���K�B ��3�kq��3�
+��"(h�B�
���~I��3�
+ � ��C"(h�B�
���xI��3� +q���� ������)�"��rI #�(h"��oI "
��P"@mJp� 0@��( ���x�3[��y *Л ����(h"���"�C^Jɲp�!@�1� ) ж�� ) Ѳ��) ٮ�x�3[� *�Zy0!�C !
C�Zy0!�C CZqu��#�CIKҲp�"
@�2� * Ќ�� * ш��* ل�x +'��3[��y�U��0!3[�y�C !
Cq�3[��yZD��`!3[��y�C@!
C�q�"3[�&��3[��y�-��0!3[�y�C!
Cq�3[��y���`!3[��y�C !
C�q�"3[�q��"(h�B�
���I #��B�(� ����$��F�   �      �   �   �       !   �!  !"  �     �   �   H    !�������F�KL#`���� !h��z� � P A  �K"��h���� ��F  �KlF4h!"��?� x��F  �L ���  �B�"hH#�3�\#@�  �Jh#"���� �  p�L 
���� #�B� h1*���p�  ��L ���� #'4�B
� ,�)"8h����$-��3���F  (�KJ`Kp� (�JK`pG�     �   l  0�K��x +)�)�h�)�� �xI �C;\�B� @	(�0%(C �70p	;���0#px#Cp
"C�p
"�pK1h�Kh�h�G�0��   �  r����J`h���ChGpG�F�  𵏰��J1�1�Q�Q�`�`��L�H�hz%[[� [X�I`�h��SC
`�I�J` #`�Kp �����K�Mh(i@!�G�K "`�K`�K�M�O`(h9h�B�ҾKhx�* ���#* ���N3x +дK�Hh!�h�G�KxS+8�;h*h�BٰH2*`��Khh1`�N�B�2` �3`�H2h h� ��3h)hZ*`�Jh�`�Jp+h;+`�Kh:`�K�Jxh�BҗJ�Hh h��i�G�Fu�R+ѐJ�Khh�J[ihj�O+ыK�Jhhpc�H+чK�Jhh�[�W+уK�Jhh`S�o+�K!h�h+�|K�Hh!�`����B�w+�vKHh!h`��G+�{Kh��)�|Kh���b�zKx + �)�mK hh�G#�T+�#3phKh\�N+�3x +�dKiHh!�h�G #3p�V+P�^M!+hiH�h�G+h!�hgH�GgN+h0�h!�G+h
!�hcH�G+h0�h!�GTO`KTN;` #3`:1hX`x� +�h3`��+h1h�hVH�G+hRH�h!�G�0`RH8`CJhY`xBK *�h2`��*hh�h�G+h�h=H!��=JX+�/N1M6hh*h� �B�X�aAH � }���[��,K>Hh�h��Y+3�h&K;I *�h`&�hhch�%�C�c` *�5K#�#}��� #M-h ���B�0M%��B�Н FY3NQ��%}��՝ I@���K'Hh�hj�Z+j�Khh &��BD�(x1 �I�5��    @ A<  4  0  �  ,  �  @  $  (  8  �   `  �  �     �  �   <  e  >  �  @  L  ���U  �   D������Y  .M/H+h!�h�G#"2@6	01	* �1 �jF�T;��+h��h!�G+h#H�h!�G"Mz#+p!K "`!Kx�B,�K!hH�h�G%�09ȲK	(�h2C`�A9)�h7:�a9)�hW:)
C�,*�Jh`�I
p "`Kh2`
Kh2��  ]  _  ,  �  �   c  �  8  (  �K x$CpK"x�Cpx!CpIx Cpx
@px !
CpK!j
CbKJZ�ZxR� *���"HI�����J #pJpJpJpJpJp�JD A5D AKD A  @  @@    B*�  �    �  �      ���H���� ��F  BK~@�pG�F  B����� (��H������F  B����� #�B�����#;ZBSA�p�
F�B� x����4��(p������ p �
X@K@ �Z	H@��pG�F�  �� $&�B �����K��x� +�1����
K� *�Jx* )��j)p�/��9�4����0 � ��  �    �>N�� "�2p<K�B�"�:I�p#BЀ4�C��~�3x�� +� %5p��v�3x���B6�C(�q(S�(��# � ��U� ���R� ��%�C����L�� '�$J� +�!I�	x )����=�9���y�= -�� 
����1�����.���>�3x +
�5p��;	x���3�����(� ��3۲�1 ��<� ,�� ������K%p � %(��    �  �8L�� #�#p�B�#�4J�4Jd&pC ����2O���� (� /�?�� /�> .��M�%����#x +8����(�(=� ����9��!0�����!���#x� +�����������#x?��+
���B�3x�B��Crx۲�B� ���� #� �����"x *� &&p�+��k�2ݲ���J #p&0��  �     5 � #�B��\�T3�����B�p3��pG  ���F����FpG���F����FpG   @�#                 @   �            �  �  �    +  �  �  v   Mar  5 2016 21:28:34 X

 Y

 Z #

 > 2.0    �
  �
    5  Q  5  y  [Arduino:XYZ]   !B c0�@�P�`�p�)�J�k���������1s2R"�R�B�r�b9��{�Z��Ӝ�����b$C4 �d�t�D�Tj�K�(�	������ō�S6r&0�v�f�V�F[�z��8�����׼��H�X�h�x@a(#8���َ��H�i�
�+��Z�J�z�jqP
3:*���˿���y�X�;���l�|�L�\",<`A�������*��h�I��~�n�^�N>2.Qp���������:�Y�x�����ʱ��-�N�o�� �0� P%@Fpg`������ڳ=���^���"�25BRwbVr�˥����n�O�,�
��4�$��ftGd$TDۧ������_�~��<��&�6��WfvvF4VL�m��/�ș鉊���DXeHx'h���8�(}�\�?����؛����uJTZ7jz�
��*�:.��l�Mͪ����ɍ&|ld\EL�<�,���>�]�|ߛ���ُ��n6~UNt^�.�>��         	C  �2	    $ $ $ $ � �	 
   �@  @    �    i   A       