:1020000000800020315100001951000019510000DA
:1020100000000000000000000000000000000000C0
:102020000000000000000000000000001951000046
:102030000000000000000000195100008551000060
:1020400019510000195100001951000019510000E8
:102050001951000019510000195100001D510000D4
:10206000195100006550000019510000195100007D
:10207000195100001951000075500000195100005D
:1020800019510000195100001951000019510000A8
:102090000000000019510000195100001951000002
:1020A0001951000019510000195100001951000088
:1020B0000000000010B5064C2378002B07D1054B1B
:1020C000002B02D0044800E000BF0123237010BDA4
:1020D0004001002000000000F87B000008B5084B1C
:1020E000002B03D00748084900E000BF07480368F9
:1020F000002B03D0064B002B00D0984708BDC046EC
:1021000000000000F87B0000440100203C0100209A
:102110000000000037B50023191C1A1C00930B485F
:1021200003F0CEFA0A4D281C01F0CAF9094C291C0B
:10213000201C01F079FD084A201C084905F02AF806
:102140005021074800F0D6FF37BDC0465C01002093
:102150007001002094010020000000205F3C00007E
:102160006401002037B5184CE121201C490203F01E
:10217000E3FE164D1649281C00F0B4FD6846291CE4
:1021800000F00CFE6946201C03F03CFB114800F0F7
:102190008FFF6846291C00F001FE0F4D6946281C80
:1021A0000E4A01F089FD0A22011C201C03F079FB74
:1021B000281C00230A49502202F068F90A22011C57
:1021C000201C03F06EFB37BD3804002020020020E5
:1021D0000400002064010020940100201475000018
:1021E0001C75000010B5214886B002F007FE01A85A
:1021F0001F4900F0E3FF01A800F00CFE002832D0D8
:10220000012401A800F022FF002826D001A800F038
:1022100027FE0028F5D001A800F02EFEC0B20A2843
:1022200015D1002CECD001A8124903F0E1FA1249B3
:1022300001A803F0DDFA01A803F0D2FA01A80F49C2
:1022400003F0D6FA01A80E4903F0D2FA05E00D38E2
:102250004342584140420440D3E7012002F0A6FF28
:1022600001A800F0C5FE06B010BDC04694010020D4
:102270006401002022750000327500004A750000DC
:102280007875000008B50E300021142204F0ECFF30
:1022900008BD10B50E31041C03F020FA201C10BD3F
:1022A00010B51C31041C03F019FA201C10BD10B528
:1022B0002031041C03F012FA201C10BD10B5283187
:1022C000041C03F00BFA201C10BD406970478069A4
:1022D00070473023481C0B7013091901521AD2B2EF
:1022E0000138092A01D8303200E03732D2B24270C8
:1022F000002B01D01A1CEFE77047000007B5002340
:1023000000930348191C1A1C03F0DAF907BDC046F4
:10231000F8010020F0B593B00AAD061C05910492B7
:1023200000212022281C04F09FFFFF23191C1A1CE7
:10233000009306A803F0C4F95C4B321C5432089396
:10234000079B0392101C08A94322099300F0B8FFD1
:10235000013000D1A7E0726801232B706B7013BAB3
:10236000049A00270624EF70AC700B93130A2B72AB
:102370006A7280236A465386291C1C22039800F047
:10238000ACFF391C2022281C04F06EFF331C0833DC
:10239000191C221C281C049304F05DFF291C102228
:1023A000039800F09AFF391C281C202204F05CFFDF
:1023B000271C0AAC0398211C2022013F00F08DFF4E
:1023C000002FF6D1822262705322A270059A6323F5
:1023D000A2713D222370E370E27135230722684623
:1023E00023712272012306220499323063716372D1
:1023F00004F031FF68460C272D493A302774677482
:1024000005F031F8F27A301C10A9FFF762FF694637
:10241000327B301C4231FFF75CFF727B301C11A90C
:10242000FFF757FF0398211C1E2200F056FF059B63
:10243000032B1FD13223237004236370B27B0398D4
:10244000A270F27B211CE270327C2271727CE371FB
:1024500062713622A271731DDB7F3A1C2372B31D99
:10246000DB7F6372F31DDB7F0836A372F37FE372B9
:1024700000F033FF37232B7006236B702B710F2373
:1024800001226B713A23AA70AB7103223B23EA70DD
:10249000EB710398FF23291C09222B7200F01DFF0A
:1024A000039800F015FF13B0F0BDC046D07A0000CD
:1024B0008F750000F0B58FB0051C0191171C02F05C
:1024C0006FFE061C2C1C5434201C00F04FFF00280B
:1024D00009DC02F065FE019A801B90423AD8322056
:1024E00002F064FEEEE705AE2422201C311C00F051
:1024F00017FF337800220192022B26D1A38B432BA6
:1025000023D17668291C36BA3E600CA80831062211
:1025100004F092FE00281FD12B689E421CD36A68EB
:10252000964219D8281C0E3009A9042204F093FE03
:10253000CC26201C013E00F0DDFE002EF9D10196D4
:10254000201C00F093FE00280BDC201C00F09AFEFB
:102550000198DDE0FF20DBE0201C00F093FE00206E
:10256000D6E0201C00F0C6FE0F2874D024DC03281F
:1025700048D00BDC0028E3D0012800D0BAE0201CB2
:1025800000F0B8FE291C201C1C3181E006284DD02B
:102590000C2800D0AEE0201C00F0ACFEC6B2701CCF
:1025A00004F036FE6B6DA861011C5B6B321C201CB5
:1025B00098470023AA695EE036285ED00EDC3328F7
:1025C00000D189E0352800D094E0201C00F092FE74
:1025D000201C00F08FFEC0B20190B1E73B286ED006
:1025E000FF28ADD03A2800D084E0201C00F082FE05
:1025F000291C0422201C303100F092FE2A6B13BAF1
:102600002B639DE7201C00F075FE291C071C203160
:10261000201C042200F084FE0026FBB2043B9E42F4
:102620008EDA201C00F066FE0136F6E7201C00F072
:1026300061FE291C071C2831201C042200F070FEBA
:102640000026FBB2043B9E4200DB79E7201C00F031
:1026500051FE0136F5E7201C00F04CFEC6B2701C9E
:1026600004F0D6FD6B6D6861011C5B6B321C201C95
:1026700098476A690023935562E7201C00F03AFEF0
:102680006B6A2E1C071C2436002B05D1201C311C24
:10269000042200F045FE53E703A8311C03F01EF8A6
:1026A000049AEB6E9A42F1D0FFB20026F3B29F4239
:1026B00000D145E7201C00F01DFE0136F6E7201C86
:1026C00000F018FE291C0422201C343100F028FEE2
:1026D0006A6B13BA6B6333E7201C00F00BFE291CF6
:1026E0000422201C2C3100F01BFEEA6A13BAEB62B4
:1026F000AB6325E7201C00F0FDFD0026C7B2F3B256
:102700009F4200D11CE7201C00F0F4FD0136F6E7E3
:102710000FB0F0BDF0B5FA2185B0041CC90001204E
:1027200003F06CFB221C543260602060101C01928C
:1027300000F0B4FD0198442100F040FE0025A842BD
:1027400000D188E002F02CFD0095071C261C5036B5
:102750003378032B78D0002B10D16368013363608A
:1027600002F01EFDFA218900C01B04F063FC012168
:1027700082B2201CFFF7CEFD012311E0042B11D102
:1027800063680133636002F00BFDFA218900C01B0E
:1027900004F050FC032182B2201CFFF7BBFD022392
:1027A000337042E0012B17D1201CA16C03AAFFF764
:1027B00081FE051E022D38D1039B636002F0F0FC00
:1027C000FA218900C01B04F035FC032182B2201CD1
:1027D000FFF7A0FD35702EE0022B26D1201CA16C46
:1027E00003AAFFF767FE051E052D19D1E26A032330
:1027F0003370002A02D1E1239B00E362236B002B9C
:1028000002D1E26A53082363626B236B002A01D171
:102810005A006263A363636B0122E363009295E74E
:10282000062802D10023337005E0FF2D03D1231CBD
:10283000002550331D70009B012B87D002F0B0FCA7
:10284000626CC01B904281D9019800F027FD63683B
:10285000009D01336360281C05B0F0BDF7B5071C6F
:10286000002508370626041C8364C562056345639A
:10287000056401914264291C321C381C04F0F4FCEC
:10288000201CFFF7FFFC321C381C019904F0E3FC0C
:10289000231C50331D70201CFFF73CFFFEBD496810
:1028A000002341600381704730B5081C0378002B7A
:1028B00001D00130FAE71C1C0878002810D0032C46
:1028C00016DC2E2806D1FF2B12DC101903710134FF
:1028D000002303E00A256B4330381B180131EBE776
:1028E000FF2B06DC032C04DC14192371012000E00B
:1028F000002030BD07B5002300930348191C1A1CA3
:1029000002F0DEFE07BDC04600020020F0B585B033
:10291000041C0F1C02F044FC251C0C352081211CDA
:102920006C460E3408310222281C00F0D6FC01232C
:10293000211C0222281C238000F0CFFC80235B0096
:10294000211C0222281C238000F0C7FC0023211C2C
:102950000222281C238000F0C0FC211C0222281C1B
:1029600000F0BBFC281C211C022200F0B6FC3E1C1F
:102970003378002B1DD03E1C3378721C0192002B43
:1029800011D1F31B0093002B11DD009A69460D3124
:102990000A70281C012200F0A0FC281C391C009A97
:1029A00000F09BFC03E02E2BEBD0019EE4E7019F9F
:1029B000DEE769460D31281C012280260B70760067
:1029C00000F08BFC211C281C0222268000F085FCD4
:1029D000281C211C0222268000F07FFC012005B06B
:1029E000F0BD0000F0B589B0051C0F1C019202F08B
:1029F000D7FB061C2C1C0C34201C00F0B7FC002854
:102A000008DC02F0CDFB801BB8420BD8322002F06C
:102A1000CDFBEFE769686A6A914205D12B8D352BB2
:102A200002D103E07048DDE07048DBE0201C00F0DC
:102A30001DFC0B2800DCD4E005AF391C0C22201C47
:102A400000F06EFC6B4616331B886A465BBAD38176
:102A500029893A889EB2914202D11BB2002B04DB35
:102A6000201C00F00FFC6248BCE0624B1E4004D00A
:102A7000201C00F007FC6048B4E06B461A331B884A
:102A80005BBA9BB20093002B1FD1201C00F0FAFB15
:102A90005A48A7E06D461235201C291C012200F07F
:102AA0003FFC2B78002B19D12B78002BF2D1201C66
:102AB00000F020FC201C00F01DFC201C00F01AFC83
:102AC000201C00F017FC0136B6B206AB1B881A06B4
:102AD000120C1B0A13439E42DCDB08E02B785A1EC3
:102AE0002A70002BE0D0201C00F004FCF6E7002543
:102AF0006E460D36311C0122201C00F011FC33788B
:102B00003F22191C91430AD1002B0DD033785A1E55
:102B10003270002B08D0201C00F0ECFBF6E7201CE4
:102B200000F0E8FB002333703378002BE0D104AFD2
:102B3000391C0222201C00F0F3FB694612310222EC
:102B4000201C00F0EDFB201C00F0D4FB201C00F04A
:102B5000D1FB6E46201C00F0CDFB0E36201C00F091
:102B6000C9FB0222201C311C00F0DAFB3B881A064C
:102B7000120C1B0A1343012B07D16A46538A1F0606
:102B80003F0C1B0A1F43012F01D0002712E033889E
:102B90001A06120C1B0A1A43042A04D0201C00F047
:102BA00071FB17481EE00199201C043100F0B8FBAE
:102BB000381C17E033881A06120C1B0A13439F4275
:102BC00005DA201C013700F095FBBFB2F2E70135B2
:102BD000009BADB29D428BD1201C00F053FB0948F5
:102BE00000E0094809B0F0BDFFFF0000FEFF000053
:102BF000FCFF00000F020000FBFF0000FAFF0000D6
:102C0000F7FF0000F6FF0000FDFF0000F0B585B003
:102C1000041C0F1C0192FFF747FE051E35D11E4B09
:102C200062685B689A4232D002F0BAFA0F23011C44
:102C30001940261C80230C36DB00C918301C00F01C
:102C4000BDFB012825D16268144B0392301C02A9F8
:102C50003522029300F034FB002801D1002510E05A
:102C6000201C391CFFF752FE0028F7D0301C00F062
:102C70002FFB0028F2D0201C0949019AFFF7B2FE71
:102C8000051C301C00F00AFB03E0012501E00225D1
:102C90006D42281C05B0F0BD00020020D07A000073
:102CA0008813000008B50421021C0B1C012000F051
:102CB00041FE08BD08B50421021C0B1C052000F0D4
:102CC00039FE08BD08B5021C04210920062300F0C6
:102CD00031FE08BD08B50421021C0B1C0F2000F0BA
:102CE00029FE08BD7FB5041C00690E1C002801D018
:102CF00002F03CFD782002F035FD7822051C002111
:102D000004F0B2FA281C543000F0DAFB217D256172
:102D10001F4800F067FE301CFFF7D4FF0023191C8A
:102D20001A1C009302A802F0CBFC03A8FFF7D2FF05
:102D30002069311C174A184BFFF790FD051E012D25
:102D400022D1216902A8FFF7A4FA03A8FFF7C2FF66
:102D5000216902A8FFF7ABFA03A8FFF7A3FF2169D7
:102D600002A8FFF79DFA03A8FFF7A4FF216902A8B4
:102D7000FFF7A4FA039B20696360FFF7A6FAA0603F
:102D80002069FFF7A4FAE060281C04B070BDC046BB
:102D90006402002060EA00008813000010B5041CE3
:102DA00002F086FC221D002104230F2000F0B6FE55
:102DB000201C10BD024B4968036041607047C0464B
:102DC000D07A000037B50024231C211C221C00945B
:102DD000054802F075FC054D281C02F069FC0A2329
:102DE0002C612B7537BDC046080200202002002050
:102DF00008B503681B6B984701235840C0B208BD53
:102E000013B502686B46D97107335468191C012247
:102E1000A04716BD007C0838431E9841C0B27047D9
:102E2000027C0B7C0020934203D1083B581E834157
:102E3000D8B2704738B5041C007C151C082803D193
:102E400001236360002208E092B200F059FC2A1CC2
:102E5000002802D101236360021C101C38BD000051
:102E600008B5017C0020082902D0024800F016FEB7
:102E700008BDC0466402002013B56C460734007CD0
:102E8000211C012200F07CFC002801DD207801E0FB
:102E90000120404216BD08B512B2007C00F070FC63
:102EA00008BD036813B59B68041C9847002807D029
:102EB000207C6C460734211C00F096FC207801E051
:102EC0000120404216BD08B5007C00F09BFC08BD07
:102ED00070B590B0041C04A8151C0E1C02F0E8FB91
:102EE00007A800F0EDFA684602F0E2FB02A80D49DF
:102EF000FFF760FF04A802A9FFF7D1FC04A8311C6A
:102F00006A46FFF783FE012809D1074A2368201C7F
:102F10009B690292019A02A903922A1C984710B059
:102F200070BDC04620020020D07A0000002343601C
:102F3000FA239B008360024B0174083303607047DF
:102F40009875000008B5017C0020082905D04901CA
:102F50000831C9B2032000F01DFD08BDF7B501918D
:102F6000037C041C171C0020082B3DD1051CEEB26D
:102F700071010831C9B2032000F00CFD002801D115
:102F8000267406E0FB2318401828F9D00135082DD7
:102F9000EDD1207C082826D0144B1A88013292B239
:102FA000002A01D18022D2001A801A880121002330
:102FB00000F030FB0199207C04313A1C00F066FBE4
:102FC000002802D1082323740EE0201CFFF7BAFF6B
:102FD000172806D0012002F0E9F8201CFFF7B2FF05
:102FE000EEE7012000E00020FEBDC0460A00002000
:102FF00038B5041C007C082823D000F077FB02F0D1
:10300000CFF8051C201CFFF79DFF002805D002F01B
:10301000C7F80C4B401B98420FD9201CFFF792FFBA
:10302000002802D0207C00F0E7FA227C064B5200F8
:103030000021D1520823237403E0012002F0B6F8E6
:10304000E0E738BDE70300001002002038B5037C3C
:10305000051C0024082B12D0FFF774FF14280ED093
:10306000A0420CD018280AD001241C2807D12B68B4
:10307000281C9B689847041C601E8441E4B2201CF5
:1030800038BD000007B5002300930348191C1A1C23
:1030900002F016FB07BDC0463802002013B50268D7
:1030A0006B46D97107335468191C0122A04716BD1D
:1030B00070B5061C86B00024E5B2291C01A8FFF7F4
:1030C00035FF01A8FFF73EFF031E0CD13289012115
:1030D000281C00F09FFA281C00F0C6FA3289044B25
:1030E0006400E25202E00134082CE5D106B070BD64
:1030F0001002002000234360024B0181083303606B
:103100007047C046D875000070B5002486B0051C15
:10311000261CE1B201A8FFF709FF134A6300D25A47
:103120002B899A4210D101A8FFF70CFF14280AD06E
:1031300001A8FFF707FF1C2806D101A8FFF790FEA2
:1031400000280BD000E001260134082CE1D1002E2C
:1031500008D12B68281C9B68984703E001A8FFF75B
:1031600047FFF1E706B070BD10020020F0B589B04E
:10317000061C0F1C0192FFF7C7FF0024251CE1B2BB
:1031800003A8FFF7D3FE0C4A6300D25A33899A4250
:1031900004D103A8FFF7D6FE172805D00134082C68
:1031A000EDD1281C09B0F0BD03A8391C019AFFF726
:1031B00041FE2D18F2E7C04610020020F0B5051CB4
:1031C00087B0081C0F1CFFF79FFF002601ACF1B26F
:1031D000201CFFF7ABFE154A7300D25A3B899A4276
:1031E00009D1201CFFF7AEFE17280CD0201CFFF7DA
:1031F000A9FE1C2807D00136082EE7D1281C311C57
:10320000FFF794FE0EE0201CFFF72AFE0028F2D004
:1032100063686B60A368AB60E368EB60044B2B6092
:10322000237C2B74281C07B0F0BDC0461002002080
:10323000A075000007B5002300930348191C1A1C51
:1032400002F03EFA07BDC0464002002008B5036800
:103250005B6B984708BD0000024B896903604160C1
:103260007047C046D07A0000808B7047008C704752
:1032700013B502686B46D97107335468191C0122D3
:10328000A04716BD10B5041C238C002B04D0236866
:10329000201CDB689847F7E710BD000010B5041C40
:1032A000007C082808D000F0A7F9227C034B5200CC
:1032B0000021D1520823237410BDC0461002002003
:1032C00008B50023C3830431007C00F0BBFA08BDBD
:1032D00008B5007C00F0D2FA08BD38B5041C0D1CFE
:1032E00093B2E18B2A1C007C00F08EFAE38BC318AA
:1032F000E38338BD37B5038C041C002B08D06D4622
:103300000735007C291C012200F03AFA002802DC73
:103310000120404203E0238C2878013B23843EBDFA
:1033200010B5038C041C002B02D1012040420CE09C
:10333000007C934201D81AB200E012B200F020FAE9
:103340000028F2DD238C1B1A238410BD13B5038CD7
:10335000002B07D06C460734007C211C00F044FA97
:10336000207801E00120404216BD0000036813B53B
:103370005B69041C9847217C0F4800F08FFB031CFD
:103380000020834217D0207C6946082200F0F8F91B
:10339000002810DD201C6946143002F0ABF96946A4
:1033A0000B794A791B02D318A3838879CB79000261
:1033B000181880B2208416BD64020020F8B5027C83
:1033C000041C0E1C0023082A1BD11D1CEFB279011E
:1033D0000831C9B2032000F0DDFA002801D12774BA
:1033E00004E01828FBD00135082DEFD1207C002304
:1033F000082806D0238466820221321C00F00AF9D4
:103400000123181CF8BD0000F0B5037C85B0041C36
:103410000D1C171C0026082B4CD1F2B251010831AB
:10342000C9B20320019200F0B5FA002802D1019B35
:10343000237404E01828FAD00136082EEDD1227C3E
:1034400000260192082A35D01C49062202A803F062
:1034500002FF6A797F2313406A46D372AB790C204E
:103460001373EB795373019B2A1D59010C3104230B
:10347000C9B200F05FFA257C3A0A6D010C35EDB255
:10348000291C102000F02EFAFAB2291C112000F09D
:1034900029FA217C062049010C31C9B202AA031C79
:1034A00000F048FA2684207C02213A1C802300F098
:1034B000B1F80126301C05B0F0BDC046F075000023
:1034C000002310B54360FA239B008360054B041C66
:1034D0000833036008230374143002F0E9F8201C59
:1034E00010BDC046F875000070B590B0041C04A86B
:1034F000151C0E1C02F0DCF807A8FFF7E1FF684678
:1035000002F0D6F802A80D49FFF754FC04A802A95E
:10351000FFF7C5F904A8311C6A46FFF777FB0128BD
:1035200009D1074A2368201C5B6A0292019A02A90A
:1035300003922A1C984710B070BDC046200200209C
:10354000D07A000007B5002300930348191C1A1C09
:1035500002F0B6F807BDC0464802002007B50023B8
:1035600000930348191C1A1C02F0AAF807BDC046B4
:103570005002002008B50A1C41010C31C9B20C20D0
:10358000042300F0D7F908BD08B50B1C4101083130
:10359000C9B2181C00F0FEF908BD08B50221FFF7FA
:1035A000F3FF08BD08B50B1C41010C31C9B2181C52
:1035B00000F098F908BD38B50A0A0D1C041C042156
:1035C000FFF7F0FFEAB2201C0521FFF7EBFF38BD43
:1035D00008B50A1C0221FFF7E5FF08BD38B50A0A45
:1035E0000D1C041C1021FFF7DDFFEAB2201C112185
:1035F000FFF7D8FF38BD000010B5041C211C1022B5
:10360000034800F0F8FA201CFF21FFF7E1FF10BD8E
:1036100064020020F7B501934B1E041C0E1C171CFE
:103620000025042B1AD8FFF7E7FF019A201C32432C
:10363000291CFFF7B7FFAF4202D0201C391C05E060
:10364000074B201C1988013189B21980FFF7B3FF9D
:103650000448211C012200F0CEFA0125281CFEBDE1
:10366000580200206402002010B50321041CFFF75B
:103670008BFF0023132805D10348211C022200F0F0
:10368000BAFA0123181C10BD6402002068B5161C8C
:103690000A78051CFF2A09D14A78FF2A11D18A78B5
:1036A000FF2A0ED1CA78FF2A0BD11BE0002A08D1CD
:1036B0004A78002A05D18A78002A02D1C8780028E1
:1036C00011D0002086420ED0281CFFF753FF281C83
:1036D000311CFFF783FF0448291C042200F08BFAF9
:1036E000012000E0002068BD6402002008B5011C34
:1036F0000822024800F07FFA08BDC046640200209C
:10370000F7B58023041C0191151C1B019A4200D9B6
:103710001D1CADB2194E211C301C00F0A1F9032173
:10372000071C201CFFF730FF172801D01C2802D1EE
:10373000AF42EFD300E00025301C211C019A2B1C66
:1037400000F0E4F9301C211C202200F054FA201C67
:10375000FFF723FF102108420AD1201C0321FFF7A5
:1037600013FF061EF3D1201CFFF746FF301C03E0B9
:10377000201CFFF72DFF281CFEBDC0466402002060
:10378000F0B5184E85B0051C0391301C291C171C80
:1037900000F084F904B2002C0CD1281C0321FFF79F
:1037A000F3FE14281AD0002818D01C38441EA0415B
:1037B000444213E0231CBC4200DD3B1C1CB2002C25
:1037C0000CDD00220092301C291C039A9BB200F0F1
:1037D000E5F9301C291C402200F00DFA201C05B030
:1037E000F0BDC0466402002013B5031C01240A1C6E
:1037F0000094191C0248231C00F0D0F9201C16BDAF
:103800006402002070470000F0B50D4E051C85B025
:103810000F1C301C291C1C1C039200F021F984424F
:1038200004D9301C291C00F01BF9041C301C009426
:10383000291C3A1C039B00F041F9201C05B0F0BD87
:103840006402002038B50B78051C141C002B09D12C
:103850004B78002B06D18B78002B03D1CA78181C2B
:10386000002A0AD00020844207D0281CFFF782FEDD
:10387000281C211CFFF7B2FE012038BD38B5041CFE
:10388000211C0D48202200F0B6F9201CFFF785FE10
:103890001021051C0D40201C002D09D1FFF77DFED5
:1038A0000307F2D5201C1821FFF792FE281C02E026
:1038B000FFF78EFE012038BD6402002008B5034BDF
:1038C0000021187801F044FE08BDC04665020020C2
:1038D00008B5034B0121187801F03AFE08BDC04637
:1038E00065020020F8B5114C114B051C0F1C161C6D
:1038F000201C06CB01F066FBFFF7E0FF290A201C25
:1039000001F08EFBE9B2201C01F08AFB391C201C5F
:1039100001F086FB311C201C01F082FBFFF7D8FF71
:10392000201C01F06BFB0120F8BDC046780200208E
:103930005C020020F7B5154C1F1C154B061C0191AD
:10394000201C151C06CB01F03DFBFFF7B7FF310A29
:10395000201C01F065FBF1B2201C01F061FB201C72
:10396000019901F05DFB2E1C731B9BB2BB4205D27B
:103970003178201C01F054FB0136F5E7FFF7A8FF72
:10398000201C01F03BFB381CFEBDC0467802002025
:103990005C02002070B5114B114C051C0E1C201C44
:1039A00006CB01F00FFBFFF789FF290A201C01F06D
:1039B00037FBE9B2201C01F033FB311C201C01F065
:1039C0002FFB0021201C01F02BFB051CFFF780FFC3
:1039D000201C01F013FB281C70BDC0465C020020B7
:1039E0007802002038B5FA20144C8000217001F0D4
:1039F000DDFB2078012101F051FD114801F0BAFAF8
:103A00000020011CFFF7C6FF802252420243D2B2BF
:103A100000200421FFF766FF002465010C35EDB29C
:103A2000291C02221E20FFF75DFF01341F20291CE4
:103A30000222FFF757FF082CEFD138BD65020020A6
:103A40007802002038B52021041CFFF79DFD2121BC
:103A50000502201CFFF798FDADB2281880B238BDD2
:103A600070B50E1C0024301CFFF7ECFF051E03D0C0
:103A7000301CFFF7E7FF041CAC42F4D1201C70BDE2
:103A800038B52621041CFFF77FFD27210502201CE5
:103A9000FFF77AFDADB2281880B238BD70B50E1CA4
:103AA0000024301CFFF7ECFF051E03D0301CFFF78D
:103AB000E7FF041CAC42F4D1201C70BDF7B50C1C10
:103AC0000193081C08AB2421171C1D88FFF75CFD1F
:103AD0002521061C201CFFF757FD3602C719BE1909
:103AE000B6B261012B1C14317519ADB2301C019AAC
:103AF000C9B2FFF71FFF2A0A201C2421FFF752FD3D
:103B0000EAB2201C2521FFF74DFDF7BD13B5141CAB
:103B100000930022231CFFF7D1FF13BDF7B5154C0E
:103B20001F1C154B061C0191201C151C06CB01F017
:103B300049FAFFF7C3FE310A201C01F071FAF1B215
:103B4000201C01F06DFA201C019901F069FA2E1C6D
:103B5000731B9BB2BB4206D2201C002101F060FA0D
:103B600030700136F4E7FFF7B3FE201C01F046FA8F
:103B7000381CFEBD780200205C02002013B5141C26
:103B80006846C4800630008849011A1C183104AB0D
:103B90001B88C9B280B2FFF7C1FF13BDF0B585B075
:103BA0001D1C0AAB1B780C1C071C081C2821029248
:103BB0000393FFF7E9FC2921061C201CFFF7E4FC16
:103BC00036028619B6B2029B0095381C211C321CA5
:103BD000FFF7D4FF039B002B0BD17519ADB22A0A56
:103BE0002821201CFFF7DEFCEAB2201C2921FFF768
:103BF000D9FC05B0F0BD10B5081C0C1C0121FFF765
:103C0000D1FC201C0121FFF7BFFC0028F9D110BD19
:103C1000034B044A1A6000225A711A717047C04659
:103C20005C02002000127A0038B5041C04300D1C20
:103C300001F03EFD201C002108220C3003F014FB93
:103C4000201C002120221C3003F00EFB00232560E5
:103C5000201C2375A36123646364E36338BD10B53E
:103C6000041C006803681B6A9847201C10BD0000F4
:103C700038B5051C0C1E01D1002019E08069002810
:103C800001D003F0CFFA201C03F0F5FB073003F05E
:103C9000BFFAA8610028EFD0211C03F0E4FB201C30
:103CA00003F0E9FBAB690349181803F0DCFB0120C2
:103CB00038BDC0464D76000073B5051C0E1C141CA3
:103CC00001F06EFA144B984203D8642001F06EFAAA
:103CD000F6E77668211CAE60281CFFF7C9FF0F4E7F
:103CE000041C211C301C0A2201F0DBFD002C0BD02F
:103CF0002C680B4923686846DD6901F0EFFC201C45
:103D00006946084AA847041C301C211C0A2201F0FD
:103D1000C8FD201C76BDC046B70B0000380400204B
:103D20000C000020E9140000F0B5071C108885B0D5
:103D30000C1C03921D1C00902378002B45D0231CE3
:103D40001A78191B0131002A07D10A9E4A1E013E2A
:103D50006B1C2A70029201941EE02E2AF5D00133CA
:103D6000EEE70198013E01785A1C1970002E0CDC18
:103D70003868291C03680A9A5B6898470A9A009970
:103D80008E18B6B20096161C2A1C019B02980133AD
:103D9000013801930290131C0299019C0029E0DC78
:103DA00023782E2B01D10134FAE70A9A9642C3D028
:103DB0003868921B0368291C5B68984700980A9929
:103DC00043189E1BB6B20096B6E70B9A002A0AD09B
:103DD0002B703868291C036801225B689847009E95
:103DE0000136B6B200960098039B188005B0F0BD6E
:103DF000F0B5141C87B00A886E46051CF2820127B4
:103E0000163603910093A969321C231C0197FFF712
:103E10008BFF0023237080236770A370E7702868EE
:103E2000211C036804225B68984733887820043398
:103E3000338001F077F82060042001F06BF8A08057
:103E4000287A697AAA7AEB7AE1712272A071637298
:103E50002868211C03680A225B6898473388039905
:103E60000A330B8007B0F0BD10B5081C0C1C03F022
:103E700002FB2318A34203D9013B5A782E2AF9D119
:103E8000981C10BDF8B5151C1468069A0E1C0F6816
:103E90000020944205DB191C381C03F0CDF9434285
:103EA0005841069BFF18E41A37602C603B782E2B94
:103EB00003D10137013C37602C60F8BD002904D0E4
:103EC0000020012902D1024800E002487047C046A4
:103ED0006576000048760000F0B587B06D461F1C7F
:103EE000138816358E1D03922B800D9AB300C318CC
:103EF000041C5B68002A01D0996800E059680C9B9B
:103F00000D9A009301923B1C201C2A1CFFF70CFF0A
:103F10000D9B002B12D1B300E3185B68201C99782D
:103F2000FFF7CCFF002809D00C9A0123411C009216
:103F30000193201C2A1C3B1CFFF7F6FE6B46163330
:103F40001B88039A138007B0F0BDF0B51C1C87B026
:103F500013886D4603920C9AEB821635012300926A
:103F600001932A1C231C061C02910027FFF7B4FFB3
:103F700001220C23E27063702770A7700D9800F087
:103F8000D1FF029B606006339B00F3185B685868A2
:103F900003F071FA0D3080B200F0BCFF2081306870
:103FA000211C03680A225B6898472B882A1C0A3365
:103FB0002B800C9B01970093301C231C0299FFF768
:103FC0008BFF2B88039A138007B0F0BDF0B58DB03E
:103FD00009AC6F4600210492061C0C221A37201CE3
:103FE0001D1C398003F040F9049988B200F092FF5B
:103FF000A378782293432080A370052D2BD8281C0A
:1040000003F004F8031608031111012000F082FFE9
:10401000E0801BE0042000F07DFFE080012000F044
:1040200079FF608112E0012000F074FFA08012E0AF
:10403000012000F06FFFA080012000F06BFFE3780B
:104040000F229343032213436081E370A2787C2301
:104050005B421343A3703468BC49236807A85B6ABA
:10406000049301F03BFB201C07A9B94A049B984725
:10407000306809AC0368211C5B680C2298473B88B8
:104080000C333B80052D00D958E1281C02F0C8FFF5
:10409000500133010600FA000501050100250C213D
:1040A0000091301C12993A1C231C0195FFF714FF54
:1040B000252221236A4413708021262349426B4420
:1040C000272219706A44012313702570782000F0AC
:1040D00029FF0A90B06903F0CEF9083080B200F0F1
:1040E00019FF0BAB18803068211C03680A225B683B
:1040F00098473B8827210A3369440D703B80129909
:1041000025236B441D7026228B00F3186A4415701A
:10411000DA6925701088049300F0FCFE0AAB188061
:104120003068211C036806225B6898473B880121A0
:1041300006333B800C2300930191301CB1693A1C7B
:10414000231CFFF7F1FD0C220092301C12993A1C3F
:10415000231C0195FFF7C0FE2521102369440B7035
:10416000262280235B426A4427211370694401227E
:104170000A702570782000F0D5FE0A903068211C66
:10418000036808225B6898473B88049908333B80A2
:10419000CB69D868A84211D126216944252208702C
:1041A000207001236A44306813700368211C5B6827
:1041B000032298473B8803333B801DE003F05BF903
:1041C00082B2051C101C059200F0A4FE208030680D
:1041D000211C036802225B6898473B880499306879
:1041E0000233CA693B800368D1685B682A1C984720
:1041F0003B88059AD4183C806D461A3509AC0C27CB
:1042000001230193301C53492A1C231C0097FFF7FC
:104210008BFD6A4625320023537023706B460121C3
:10422000273319701770782000F07CFE049A0A90EA
:10423000D369986803F01FF9023080B200F06AFE7B
:104240000BAB18803068211C03680A225B68984712
:104250002B88301C0A332B800123019312992A1CCE
:10426000231C0097FFF738FE78230193301C129926
:104270002A1C231C0097FFF768FE301C291C221CF7
:104280003B1C59E00C23009300230193301C12992E
:104290003A1C231CFFF759FE50E0052D01D1716C2B
:1042A00000E0316C0C220123009201933A1C231C84
:1042B000301CFFF739FD6A46002326321370237045
:1042C0000122052D00D10C226B4625331A7030686F
:1042D00001229A700368211C5B680C2298473B8876
:1042E000053D0C333B8000F05BFF6B425D411235B6
:1042F000AD00A85122E00C2101250091301CB169CC
:104300003A1C231C0195FFF70FFD6A460023263255
:10431000137023706B4625331C2230681A709D7011
:104320000368211C5B68042298473B8804333B8068
:10433000301C391C221C0C23FFF75AFD306803681F
:10434000DB6A984701200DB0F0BDC0460C0000208C
:10435000E914000054760000F0B589B00490039190
:1043600006920793002900D18DE0069A002A00D119
:1043700089E00027049ABB00D318DE69002E6ED1B5
:10438000102002F045FF041E69D0C6604660039805
:1043900003F071F8013002F03BFF051C60600398E8
:1043A00003F069F8311C421C281C02F05DFF002D4F
:1043B0005CD00E9B002B16D0181C03F05CF801306B
:1043C00002F026FF0590E0600E9803F054F8311CCF
:1043D000421C059802F048FF059A002A43D0101CA1
:1043E0000E9903F040F8079A069B281C0399A270C7
:1043F000238003F038F861680498FFF735FD061C48
:1044000003F039F80D3002F003FF051CA060301CEA
:1044100003F031F8021C0D32281C002102F024FFA9
:10442000002D0CD0311C281C03F01DF807990498AE
:10443000FFF744FD011E02D0281C03F007F8049A80
:10444000BB1D9B00D31800215C60101C0223009749
:104450000A1CFFF7BBFD01384342584114E0013705
:10446000082F87D10FE0281C02F0DCFEA06800288E
:1044700001D002F0D7FEE068002801D002F0D2FEA1
:10448000201C02F0CFFE002009B0F0BD13B5024C95
:104490000094FFF761FF16BDDA7A0000C36DF7B52F
:1044A000041C0D1C171C002B0ED0002904D0FFF794
:1044B000DBFC002301380370391C6846E66D01F00F
:1044C0000DF9281C6946B047206C02F0ABFE0023B2
:1044D0002364F7BDF0B5D5B0071C00210A2222A83D
:1044E00002F0C2FE3868002212AB1A8003681B6B10
:1044F000984783B2002B00D12CE1181C1C1C02F041
:1045000087FE0590059D38680368002D05D15B691D
:104510009847059EFE250B961FE10599221C5B6BB3
:10452000984725AC059A231C23CA23C3208800F092
:10453000F4FC0B90A08800F0F0FC0D90E08800F0F7
:10454000ECFC0F90208900F0E8FC1090608900F0EE
:10455000E4FCA478072311909C4300D0E7E038687E
:1045600003681B6C9847C04B984200D0DFE00C25D5
:104570000395261C0894089D0D98854200D3E4E01D
:10458000B86934AC00252570409002F074FFB7493B
:104590003AAB012241911C2165704A901A704B91EF
:1045A0005A700224A5007B195B6940AA002B0ED02B
:1045B000986800280BD0505102F05DFF4AAB0122F1
:1045C000E8503AABE254002234ABE25407E0002357
:1045D00053514AAAAB503AAAA35434AAA354013463
:1045E0000A2CDFD1059D039825AB2A5C051C1A70A7
:1045F000013506920492802A12DD05994A5D013543
:104600001A70111C002334AA9A5C002A04D08A4232
:1046100002D000203AAA985401330A2BF3D136E095
:10462000069A002A39D0049B03930C2B01DD0C2041
:104630000390059A25A85119039A02F00CFE039BDA
:104640000498ED18C01A0490002422ABE35C002B00
:1046500017D1E82109196A46895C0791002910D011
:10466000A20040ABD118039B4AA812180093381C33
:1046700025ABFFF707FC079B69460340E8200019BC
:10468000435401340A2CE0D1049A002ACBDC069B67
:10469000013B7F2B01D80395A4E7059B25AC591955
:1046A000201C042202F0D7FD6B462478973318783B
:1046B000013BA4461C787F231C406B469533043590
:1046C0001A780395002322A9595C002928D1990062
:1046D00040AD4D59002D23D03AAD5D5D002D1FD06A
:1046E0004AAD495900291BD16546002D18D1012832
:1046F00016D1002C14D1002B02D1012A0AD105E0D9
:104700000C2A03D0102A01D0212A09D1012522A97F
:104710005D5405E01C2A01D00123D4E70126FBE704
:1047200001330A2BCFD1089D0135089523E725AB2E
:104730009B7807229343802B06D1386803681B6C53
:104740009847494B984250D00026059802F06AFDE0
:10475000012502E01E1C0B930325002422ABE25C22
:10476000002A2DD0002C0DD139684AA80B68DB6BCC
:1047700098470094231C381C4B990B9AFFF726FC92
:104780000124EBE7012C09D19C70DC701C715C7179
:104790009C71DC711C725C720224DFE7A300FB18C1
:1047A0005B69002B0CD039684AA80B68DB6B984713
:1047B000A31E0093381C4B990B9A0223FFF706FCAB
:1047C00001340A2CCAD1002E0CD039684AA80B68D3
:1047D000DB6B984700230093381C4B990B9A0123FD
:1047E000FFF7F4FB68B255B0F0BD396C002902D177
:1047F0007A6C002AA8D000211E224AA802F034FDBB
:104800000021182234A802F02FFD18222EA8002122
:1048100002F02AFD002313AA5370137009930C258C
:1048200006930F9B0D9A1098D218119910180A929E
:10483000069A43180E909A4205D37D6C0395002D7D
:1048400000D07DE2C3E20024261C3B19186C1CAB8F
:10485000185100280CD002F00EFE1EABE0500122D1
:1048600014ABF25408E0C046E9140000547600008E
:1048700014ABF0541EABE05001360434022EE4D1E8
:104880000024A6002EABF058002808D03AABF05018
:1048900002F0F1FD40ABF05001221AABE2540134BA
:1048A000062CEED1002315AA5370137016AA53706C
:1048B000137017AA5370137004930893059825ABCF
:1048C000425D691C1A700391161E802E2CDD425C1D
:1048D00002351A70131C13AA12780395002A02D10C
:1048E000012117AA03E09A42FAD0002114AA1170FC
:1048F00016AA0121117013AA5278002A05D09A42F3
:1049000003D0002214AB5A7001E017AB5970089D18
:10491000012202350895049D16AB5A70002D7BD1FB
:1049200025AB1B78049377E0089801300890002AA3
:1049300077D006990D9A914203D2039DAD19039544
:104940006AE00498002801D1EDB204950796079D0E
:104950000C2D00DD0C25059A039B25A8D1182A1CD7
:1049600002F079FC039807994019491B03900791BD
:10497000002412ABE35C002B19D1502212196B46B4
:10498000D25C0C92002A12D0A2001CA95358002B12
:104990000DD01EA8511825AB12180095381CFFF732
:1049A00071FA0C9B5021034009196A468B5415ABD0
:1049B000E25C002A02D114AAA25CE254002316AAE7
:1049C000A3540134022CD4D11C1CA3002EAA9A5843
:1049D000002A18D0682000196946405C0C90002815
:1049E00011D040AA9958A9420DDB3AA819189A1873
:1049F000009525AB381CFFF745FA0C9B6821034056
:104A000009196A468B540134062CDED1079D002D0E
:104A10009DDC089DAD190895731E7F2B01D8039D61
:104A20004CE7069D0D98854202D2039D043580E136
:104A3000069D0A98854203D3099D002D00D1FCE60E
:104A4000059D03980422291825A802F004FC039D63
:104A500006990A9A0435914200D395E000231E1C62
:104A600013AAB15C002903D10898291A0439B1545A
:104A7000B1001CAA8A58002A00D180E014AAB25CB6
:104A8000002A03D01EA8095800290DD015A9715C71
:104A9000002903D016A9715C002905D117A9715C02
:104AA00000296CD0002A6AD025AA1278002A66D183
:104AB0006A46953211780C22002E00D101229142D3
:104AC0005DD16A46963214787F22144057D16A46E7
:104AD00097321278012A52D112ABF254059A25A8C6
:104AE0005119062202F0B7FB26AB0635188804954B
:104AF00000F013FA0390002E10D104283BD1059B3F
:104B0000039A591925A802F0A6FB381C396C25AA6E
:104B1000FFF7C4FC2FE00134062C2CD0A3002EAAF2
:104B20009B580793002BF6D1039D023D281C0A9544
:104B300002F06EFB051E1ED00598049A81180B78B2
:104B400025A80370039B0131033B1A1C281C099301
:104B500002F081FB25A90B78099A934200DB47E11B
:104B60000798E854A2002EABD550049D640028ABF2
:104B7000E55201250995049803990123451801364A
:104B8000022E00D06CE7C5E0069A0E9B9A4200D236
:104B9000C2E06B4695331B78212B49D10026B30028
:104BA0002EAA9A58002A3FD00498002815D07200E7
:104BB00028A9525A824210D1059A25A851190622D5
:104BC00002F049FB039D0A35049526AD288800F0C4
:104BD000A4F9041E072C24D908E040AA9B58002BF6
:104BE00022D11AABF35C002B1ED0E5E70598049A9E
:104BF0008118082225A802F02EFB288800F08DF9E4
:104C000073002BAA98526B469A331A7818AB802AF5
:104C100004D96A469B3212789A5502E0039D1035FA
:104C20009D55049B1D1984E00136062EB7D173E013
:104C3000102B42D100239E002EAAB258002A38D051
:104C40000498002815D05A0028A9525A824210D13F
:104C5000059A25A85119062202F0FDFA039D26ABFC
:104C60000A351888039500F058F9041E012C09D85C
:104C70001CE040AAB258002A1BD11AAA9A5C002A4A
:104C800017D0E5E734A88059049000280ED1601CA5
:104C900002F0BEFA34A9051C885107D0059A039B7F
:104CA000D118221C02F0D7FA0498285503990D193F
:104CB0003FE00133062BBED12EE0012B2CD1002387
:104CC00005210A1C5A434AAE925D002A1ED1049A5D
:104CD000002A00D1FF2259437254059A049125A855
:104CE0005119062202F0B7FA26AB1888039C00F08F
:104CF00014F90A34051E042D1AD1049B2A1C013311
:104D0000F018059B191902F0A6FA11E00133062BE1
:104D1000D6D101E0002B0CD1059825AC0435411902
:104D20000222201C02F097FA208800F0F6F8841C7A
:104D30002D1906990131069173E52E2B03D001350B
:104D40002B78002BF9D100242C70A3000693069831
:104D50002EABC3580493002B34D06A4618AB2A32CA
:104D60000021E65CFF320B1C501E0078B04205D1DA
:104D70000521594354AA511827390CE0FF28F7D0D0
:104D8000002902D1002800D0111C01330532062B66
:104D9000EAD1002916D03E6E002E13D03B1C5833AA
:104DA0001B7820A8089300F099FC2BAA63009B5A5B
:104DB0000698009334ABC358089901930398049A5A
:104DC00020ABB0470134062CBFD12E232B7000241A
:104DD0002EABE058002807D002F024FA34ABE0589C
:104DE000002801D002F01EFA0434182CF0D1ABE4F4
:104DF0000A99079A6B18013B1A70B3E6F0B589B0AF
:104E0000041C00F0CDF90290201CFFF763FB251C69
:104E1000403500262968002912D0029FA9687B1A14
:104E2000002E5FD1FA229200934206D90423002279
:104E30000092201C111CFFF7C9F82B69002B1DD113
:104E40000136F6B20435022EE4D1029FE16B294B04
:104E50007A1A9A424BD90025AB00E318DB69002B84
:104E600006D000210095201C0A1C0223FFF7AEF893
:104E70000135082DF0D1029FE76338E0029F9F4281
:104E8000DED9002E05D1201C216C321CFFF706FB59
:104E900020E0216E00291DD0676C3B1C1A78002A87
:104EA00014D100221A70236E06A80493231C5833D1
:104EB0001B78059300F0FCFB002100910191381C48
:104EC0000599002206AB049FB84703E02E2AE8D0DC
:104ED0000133E3E728680028B2D002F0A3F90023E9
:104EE0002B60ADE7044A9342A7D905239FE709B099
:104EF000F0BDC046905F01001027000007B50023F9
:104F000000930348191C1A1C00F0DAFB07BDC046C9
:104F10006802002040BA80B2704740BA80B2704741
:104F200000BA704708B5FFF7FBFF08BD437A002BB6
:104F300004D18372C372C36001234372704730B5DA
:104F400085B0041C02AD00680291039200F0AAFD36
:104F50006B79E179227A00932068002300F044FE07
:104F600029792068029A00F06DFD206800F090FD1C
:104F700005B030BD70B5041C1826FFF7D7FF2079A7
:104F8000331C43430D4D0821EB18595600F010FB1C
:104F9000A079331C43430821EB18595600F008FB55
:104FA000607908214643AD19695600F001FB044BB6
:104FB000201C06CBFFF7C3FF70BDC046747600000F
:104FC0007002002007B5837A00910192002B0DD06A
:104FD0009A0706D5EFF310835A425341C37272B653
:104FE00004E0DA0702D58289034B9A600099019A9E
:104FF000FFF7A5FF07BDC04600180040837A002BCD
:105000000BD09A0704D5C37A002B06D062B604E011
:10501000DA0702D58289014BDA6070470018004038
:1050200008B5006800F047FD08BD0000094B0A4ABA
:105030000A491A6000225A711A71094B1960162127
:105040001971182199711721597101215A72D97159
:105050001A7270477002002000093D0020040020F1
:105060007802002008B5024800F034FE08BDC046B2
:105070008802002008B5024800F02CFE08BDC0469A
:105080004C030020F7B5164F1649381C00F06AFC97
:105090001549164800F066FC1549164800F062FCF8
:1050A0001549164800F05EFC1549164800F05AFCF8
:1050B000154D03260124281C144900F053FC391C0B
:1050C0000096231C01940022114800F0DFFD009699
:1050D000291C01941F221E230E4800F0D7FDF7BDA6
:1050E0001404002000080042000C004218040020B4
:1050F000001000421C040020001400421004002094
:10510000001800422004002024040020001C00425B
:10511000880200204C030020FEE7000008B5034B86
:105120001B68002B00D0984708BDC046280400200B
:1051300038B50F490F4CA14204D100F055F800F0EA
:10514000F1FA0BE00C4D8D42F7D00023CA18E81895
:10515000A24204D2006804331060F7E7FEE79042F1
:10516000EBD0064B064A9342E7D2002204C3F9E78C
:105170000000002040010020FC7B000040010020D6
:10518000300A002008B500F02CF8002801D100F00A
:105190001DF808BD014B18607047C0462804002068
:1051A000014B18687047C0462C04002070B5041EDF
:1051B00008D0054B1D681E1C00F012F833685B1BFD
:1051C000A342F9D370BDC0462C04002008B5034BA0
:1051D0001A6801321A6000F08BFB08BD2C04002015
:1051E000704700207047000070B5494A1E2153687F
:1051F00002208B430343474953608B6908242343B0
:105200008B61454C454B9C829C8A20439882101CA4
:10521000DA689407FCD5424A012414701478E50733
:1052200004D53F4C647864B2002CF7DB0124946011
:10523000547864B2002CFBDB3A4D394C65605478ED
:1052400064B2002CFBDB8225354CED01658054787F
:1052500064B2002CFBDB02249C84DC68E606FCD5EF
:10526000314D2E4CE562DD682C4CEE06FBD5A58C4D
:105270002E4E3543A584DD68284CEE06FBD5A58C63
:1052800002263543A584DC682506FCD5234CE4685A
:105290006606F8D5DC68E506FCD5002494605478F1
:1052A00064B2002CFBDB224D1D4C656055781C4C14
:1052B0006DB2002DFADB1E6A1E4D35401D621D6A5F
:1052C0008026B5431D620323A3601B4B63605378A4
:1052D0005BB2002BFBDB00230B72184A4B728B7204
:1052E000CB72174BFF211A60164B174A1B681268C6
:1052F0005C01D20E214011439A06520F12020B1C80
:105300001343124A1385436880221343436070BDE0
:1053100000400041000400400C060000000800406E
:10532000000C004001050100B805FF7D040A0000E3
:1053300000070300FFFCFFFF03060100006CDC0216
:1053400010000020246080002060800000400042A7
:10535000314BFA21186810B5890001F06BFE2F4B14
:105360000138984224D82E4A2E4B5060186AC0212A
:105370000002000A09060143196200240721946013
:105380001160196A80220902090A12060A431A6288
:10539000254BFC211A6A0A431A62196AFC229201FF
:1053A0000A431A62196AA022D2020A431A6200E072
:1053B000FEE7201C0021013400F070F8142CF8D115
:1053C0001A4C63785BB2002BFADB194B6380194BE4
:1053D0005A7ED209012AFAD0E422D2009A803F22D2
:1053E000DA70597E134AC9090129FAD0C0235B013A
:1053F00000201361907000F023F863785BB2002BFB
:10540000FBDB0D4A094B5A800C4BDA79D209012A91
:10541000FAD041225A7010BD10000020FFFFFF009B
:1054200010E000E000ED00E000040040000C00404F
:105430001E400000004000422140000000480042A1
:1054400000B5144A517E131CC9090129F9D001384D
:10545000042813D81969104A0A401A615A780F2192
:105460008A4301F0D3FD030509070300012102E08F
:10547000032100E002210A435A700AE01169F02377
:105480001B050B43136153780F218B4302210B4300
:10549000537000BD00400042FFFFFFF010B518241C
:1054A000021C201C5043274B1818007A40B20130D0
:1054B00046D0032944D8081C211C01F0A7FD023363
:1054C0001121624398569A18C3011F4852681B184D
:1054D00099184031022008700121914059602FE055
:1054E0006243985618499A185268C3015B18991874
:1054F00040310620087001219140596099611FE0F8
:1055000051435A56104859184B68D2011118C818FF
:105510004030062404700120984048600B4952181E
:1055200050600DE0624398569A18C30106485268CD
:105530001B18991840310220087001219140996090
:1055400010BDC04674760000004400411044004184
:1055500018235843134AF0B5131808241C57013474
:105560001FD08256104ED2015D6801249019231C71
:105570008668AB401E420BD10E1C771EBE414019FF
:1055800034404030A50004780426B4432C43047012
:10559000002903D105495218536002E0024E9219C6
:1055A0009361F0BD74760000004400411044004156
:1055B00018224243F8B52D4D0824AA181457031C8D
:1055C000621C50D0481C00240C284CD801F01EFD51
:1055D000071E1E1E1E1E1E1E1E0A0A0A0A00012487
:1055E000644240E0092902D1181C002103E00A2985
:1055F00004D1181C0221FFF751FF23E000240B29DE
:1056000031D1181C0121FFF749FF2CE01822534328
:10561000EA185268EB560120141C04405508DB01BF
:10562000002C11D0124C1B195D1930352E780C014D
:105630000F21314021439A18C9B2297040321378A2
:105640001843107000240EE0094E0F279B195D19B6
:1056500030352E789A18BE433143C9B22970403292
:10566000137818431070201CF8BDC04674760000F3
:1056700000440041F7B5002401900D1C261C019A3E
:10568000281C131919790A2200F01FF92E21071C72
:10569000281C00F097F80134C719F619032CEED135
:1056A000019B281CD9790A2200F00FF93018FEBDA1
:1056B000024B08330360002343607047C87A000040
:1056C00030B503AC044D2478083505600171427192
:1056D0008371C47130BDC046C87A000010B5044A59
:1056E000041C083204C0042201F0B5FD201C10BDCA
:1056F000C87A000010B50422041C043001F0ABFD90
:10570000201C10BD044A054B08321A6000221A7191
:105710005A719A71DA717047C87A0000300400201B
:105720007047000010B5FFF713FE01F04BFDFFF7C7
:10573000F7FF0120FFF73AFD084C201C00F024FE83
:10574000201C00F099FEFCF70DFDFCF74BFD044B0F
:10575000002BFAD000E000BFF7E7C04603090020A5
:105760000000000008B501F053FD08BD08B501F0C8
:1057700059FD08BDF7B58A18061C0D1C01920C1CBA
:10578000019B671B9C4207D0336821781B68301C43
:10579000984701340028F3D1381CFEBD08B50368D2
:1057A000C9B21B68984708BD38B5051C0C1C081EFB
:1057B00007D001F060FE2B68021C5B68281C211CCE
:1057C000984738BD08B503681B68984708BD10B5F1
:1057D0000A68041C1268081C211C904710BD0000B8
:1057E00008B50249FFF7E0FF08BDC046D87A0000BF
:1057F00038B5041CFFF7D8FF051C201CFFF7F0FF8D
:10580000281838BD38B5041CFFF7E1FF051C201C23
:10581000FFF7E6FF401938BDF0B58DB0161C0BAB95
:10582000002201900C1C1A70012E00D80A266D4629
:105830002B35201C311C01F041FC201CCFB2311C47
:1058400001F0F8FB291C041C092F01D8303700E0B7
:105850003737FFB22F70013D002CEAD10198FFF7D6
:10586000A3FF0DB0F0BDF8B5041C0D1C161E04D12D
:105870000368C9B21B68984712E00A2A0DD10029B3
:105880000ADA2D21FFF79EFF6942071C321C201CFB
:10589000FFF7C2FFC01903E000E0D2B2FFF7BCFF80
:1058A000F8BD38B5041CFFF7DEFF051C201CFFF710
:1058B00097FF281838BD08B5002A02D1FFF76EFF00
:1058C00002E0D2B2FFF7A8FF08BD08B5FFF7F3FF6B
:1058D00008BD0000014B18607047C046140000204E
:1058E000024B012252421A607047C0461400002049
:1058F000154A1368581C25D0013B1360002B21D199
:1059000072B6124A124B04329A4207D8BFF34F8F35
:10591000104A114BDA60BFF34F8F11E00F4B197D26
:10592000C807FBD5188B2021FF3192085200014394
:105930001983DA610A4A1A801A7DD107FCD5E5E796
:10594000C046FDE77047C04614000020002000005C
:10595000030200000400FA0500ED00E000400041F1
:1059600002A5FFFF01607047F7B508AC2678046810
:105970009D1E27686C1EA541ECB2920705683A434C
:1059800027063A432A600268072529405068B50176
:10599000002C00D05C03294301430C435460F7BD45
:1059A00030B50368C0251C68AD0312052A402243A8
:1059B000C024A402090421401143196003685A68F5
:1059C00014435C6030BD036801211A680A431A6001
:1059D0000268116801231942FBD1D1691942F8D13B
:1059E0007047036802211A680A431A600268D36983
:1059F0009907FCD4704703681A7ED10702D41A7E37
:105A00009107FCD57047036800225A8370470368EA
:105A1000187E4007C00F70470368187EC0097047A2
:105A200003688022197E52420A431A76704703683F
:105A3000188DC0B2704703681A7E01200242FBD065
:105A40001985704770B5036801268D07ED0F314049
:105A50001C686D0709072943214319600468510038
:105A6000034801F0E7FA0138C0B2207370BDC046A8
:105A7000006CDC02036801211A680A431A6002689C
:105A8000116801231942FBD1D1691942F8D170473D
:105A9000036802211A680A431A600268D3699907E9
:105AA000FCD470470368DA699107FCD41A680221B4
:105AB0008A431A60704703689A6A520A5202114375
:105AC000996203681A7E5107FCD5986AC0B2704784
:105AD0000368224A30B5934211D0214A934211D033
:105AE000204A934211D0204A934211D01F4A934238
:105AF00011D01F4A934230D10E2319220DE0092301
:105B000014220AE00A23152207E00B23162204E0E0
:105B10000C23172201E00D231822DCB215490120C5
:105B20009B08A0409B0008605B180320C0218900EF
:105B300004405D58E000FF248440A5432C1CC02590
:105B40008540281C204358508023DB011A430A4B10
:105B50005A805A7852B2002AFBDB30BD000800425E
:105B6000000C0042001000420014004200180042E5
:105B7000001C004200E100E0000C0040F8B5041CED
:105B8000151C0E1C1F1CFFF7A3FF201CFFF71BFF9B
:105B9000B1001C220A4069072368090C0A431A60F5
:105BA000226884239375012E1AD10821012D00D17A
:105BB00010210C4B79431868C00001F03BFA2368B0
:105BC00007219A890140D2044903D20C0A439A81E1
:105BD00023680004C20C9889400B4003104398814D
:105BE000F8BDC04610000020F7B5019308AB041CB7
:105BF0001F780D1C161CFFF73DFF201CFFF768FFE8
:105C0000BF070C221743C022920336051640C0225C
:105C100092022D0423683E43019915403543072223
:105C20001D600A408021236889020A435A60F7BD3B
:105C30000120704708B50368014ADB69984708BD31
:105C40001304000010B5041C0069FFF7BCFE201C03
:105C5000143001F052F910BD08B50069FFF7CBFE12
:105C600008BD08B5143001F063F908BD08B514305B
:105C700001F067F908BD08B5143001F045F908BD19
:105C800008B50069FFF7D7FE012008BDF7B51D1C58
:105C900008AB1B78041C009309AB1B78161C0193FE
:105CA00000234360FA239B008360094B0F1C0833D9
:105CB0000360143001F002F9009A231CC0332761FD
:105CC0009A70019A1E705D70201CDA70FEBDC0468D
:105CD000F07A000010B5041C0069FFF798FE002858
:105CE00007D02069FFF7A3FE011C201C143001F02F
:105CF000F2F82069FFF790FE002805D02069FFF731
:105D00008FFE2069FFF77FFE10BDF023081C1840AE
:105D10003038434258417047F0231B01194080231B
:105D20009B0099420CD0C0239B00994206D080234F
:105D30005B000520994204D0002002E0072000E02B
:105D4000062070470F231940012905D002394B4224
:105D50004B410220C01A00E000207047F0B5031C40
:105D600085B00391C033041C182718783B1C4343AB
:105D70001B4E0821F3185956151CFFF719FC231C5C
:105D8000C133187808214743F6197156FFF710FC04
:105D900001210A1C039B2069FFF7F0FE291C201C2F
:105DA000FFF7BAFF291C071C201CFFF7CBFF291C9B
:105DB000061C201CFFF7A9FF391C0090331C20692A
:105DC0000122FFF7D1FD231CC3331978013B1A7858
:105DD0002069FFF7E5FD2069FFF703FE05B0F0BD80
:105DE00074760000002110B5041E8C4204D001F02E
:105DF000DFFA211C01F0C2F9081C10BD10B5041E09
:105E00008C4203DA081AFFF7EDFF0419201C10BDBD
:105E10003F20704713B502686B46D9710733546849
:105E2000191C0122A04716BD08B50069022100F027
:105E300027FC08BD08B50069032100F037FC08BD48
:105E400038B50D1C041C131C006903212A1C00F02A
:105E500029FD002801D10123636038BD10B5054C30
:105E600023685A1C04D10368DB6898472060031C30
:105E7000181C10BD68000020074A08B51368591C9B
:105E800004D0012149421160181C03E0006902217D
:105E900000F0FAFC08BDC0466800002008B5037891
:105EA0000349023303704222024800F0B1FD08BDED
:105EB000240000200309002010B50178031C42785B
:105EC0000020A12908D1212A2FD1184818490722DA
:105ED00000F09EFD012028E0212926D1202A05D1AD
:105EE00013490722114800F027FC04E0222A10D1B0
:105EF0009A780F4BDA710E4B96221968D2009142B4
:105F000010D1DC7901231C400CD1FA20FFF7E2FC10
:105F10000AE0232A09D1DA789B7812021A43054B4A
:105F20001A6002E0FFF7DCFC002010BD030900202E
:105F3000180000202000002070470000064BFA21C6
:105F400089009960054900220831196004495A60A6
:105F500019611A767047C04638040020207B000083
:105F60000309002070B5C2B219495301CB189E68CD
:105F7000184DC0242E40A40526439E60164E800175
:105F800009683018083258605201505C0726B04347
:105F90000126304350549E6935402C439C610F4C80
:105FA0005C61505C7024A0431024204350549C68D2
:105FB0000B488A1820408024640320439860986826
:105FC0004021800B8003986053790B43537170BD5F
:105FD0000C090020FFFFFF8F240700206005002030
:105FE000FF3F00F038B5041C08CC01211A78051CCD
:105FF0000A431A708022201C0021520001F034F95B
:106000002B689A78D107FCD45C6238BD134BF0B58D
:106010001B6899035A029B01C90ED20E5B0F1F2900
:1060200000D105211F2A00D11D22072B00D10323F7
:1060300004688E01278D0A491F2539403143218587
:1060400001682A400C8DAC4322430A85026819037B
:10605000108D044B03400B431385F0BD246080007A
:106060003FF8FFFFFF8FFFFFEFF310830360012373
:10607000436072B670470368002B02D162B6BFF36B
:106080006F8F704737B50569041C6846002D12D123
:10609000FFF7EAFF019B013B03D3621DD57FEDB201
:1060A000F9E768460193FFF7E6FF0020854217D025
:1060B000206AE36913E0FFF7D7FF019B0025013B4E
:1060C00004D3221C34321578EDB2F8E76846019308
:1060D000FFF7D1FF0020854202D0206BE36AC01A8F
:1060E0003EBD0000436810B51A68037A01215B01C8
:1060F000D318FF339A7A0A439A72037A42685B0193
:10610000D318C2689C6891040B4A090922400A43CB
:106110009A60037A42685B01D3189A684021920B17
:1061200092039A6043681A68037A08335B01D318B4
:106130001A790A431A7110BDFF3F00F0F7B50569DF
:10614000041C0E1C171C6846002D1FD1FFF78CFF86
:10615000019B013B5A1C06D0621DD17F5A1E0029AB
:106160003AD0131CF6E768460193FFF784FF002539
:10617000E369BD4235D0226A934232D25A1CE261B1
:10618000A269D3181B7873550135F1E7FFF76CFF4F
:10619000019B013B5A1C08D0221C343215785A1E30
:1061A000EDB2002D18D0131CF4E768460193FFF7F9
:1061B00062FF0025E36ABD4226D0226B934241D3A1
:1061C00022E0621D0021D17730321678581E8E42AF
:1061D00014D1031C5A1CF4D168460193FFF74BFFFE
:1061E00038E0226A934235D10023E3610123236121
:1061F0006846FFF739FF019B013BEBE71170201C5C
:106200000193FFF76FFFF6E7226B934222D1002341
:10621000E36223616846FFF727FF019B013B5A1C9D
:10622000DAD0221C34320021117001321678581E47
:106230008E4201D1031CF2E71170201C0193FFF77D
:1062400051FFEAE75A1CE262A26AD3181B78735521
:106250000135AFE7281CFEBD37B54368027A1B68DD
:10626000083252019A18041CD0790123FF211842E8
:1062700053D0D371A068656962680140002D20D1B8
:1062800049015218916863618904890C2162A16AED
:1062900068465160621DD377FFF7E6FE019B013B24
:1062A0005A1C33D0221C34321178581EC9B2013224
:1062B000002903D001930123137023E01170031C04
:1062C000EEE74B01D3189A68A5699204920C2263F9
:1062D0000022626168465D60FFF7C6FE019B013BDC
:1062E00001E011702B1C591C10D0221C34320120EB
:1062F0001070621DD17F5D1EC9B230320029F0D00E
:10630000019310706846FFF7B6FE06E068460193F9
:10631000FFF7B1FE201CFFF7E5FE37BD37B50023C0
:106320006C46E3710734201C0D1CFFF7B7FD2B688A
:106330001818286000F058FE211C00F00FFE2B6892
:106340001818286020783EBD03290BD10D4BB222CE
:106350001B685200985C80214942014399540221F4
:1063600068220CE001290CD1064B92221B685200D6
:10637000985C802149420143995402212822FF322E
:10638000995470470C09002038B5304B0024012186
:10639000051C1A201C70FFF781F81A200121FFF755
:1063A000D7F82B4B192001211C70FFF777F8192023
:1063B0000121FFF7CDF8274B2021DA6901200A439C
:1063C000DA61254B06241A7802431A70234B0F22F8
:1063D00019789143197019782143197020490C7864
:1063E0002043087019780A401A701A7860210A430D
:1063F0001A701C4B1C4A5A805A78D209FCD11B488F
:10640000FEF7C8FE1A4C201CFFF7ECFD201CFFF71E
:10641000FDFD23687F2219780A401A701A7804213A
:106420000A431A701A890C218A431A81C121114A20
:10643000890050580002000A5050802111601A78DB
:1064400002210A431A7001232B7038BD2007002057
:106450000809002000040040584400413C44004129
:1064600059440041000C0040064000009D6E0000B1
:106470000C09002000E100E00078002810D0094B52
:1064800001211B681A898A431A811A8B08210A4341
:106490001A831A8B04210A431A83034B00221A60C1
:1064A0007047C0460C090020100A00200F4B9A6963
:1064B000920B92039A611B680222FF331A72987939
:1064C0008022524202439A711A7A9007FCD5084BF7
:1064D000081C997A7F221040914301439972997A5E
:1064E000802252420A439A727047C0460C0900202B
:1064F0000050004110B50B790C1C002B0BD1081C6F
:10650000FFF7DAFC002804D1094B9A69920B920339
:106510009A6101200BE000F067FD211C00F052FDA4
:106520000028F6D1024B9A69920B92039A6110BD32
:106530000C090020F8B50D1C832A16D1CAB24249B5
:106540005301CB189C694148AD012040C024A405EB
:10655000204398613E48083245195D610B6852013D
:10656000D15C70208143402065E0022A45D138206B
:10657000FFF7F8F8374B344F80260360760000238E
:10658000421D036203614361C36147608560C66069
:10659000D3772F32041CC36203631370301C537013
:1065A00000F036FEA061301C00F032FEFF232A1CF2
:1065B0001A405201A062BF18B968244A07260A404F
:1065C000C02189050A43BA60A1686268194012684F
:1065D00008314901885CAD00B0430326304388543C
:1065E000A16862680B405B01A169D3185960201C47
:1065F000FFF778FD184BEC5025E0822A1ED1CAB275
:1066000011495301CB189C691048AD012040C024AA
:10661000A405204398610E48083245195D610B6856
:10662000520199180C798020404220430871D15CB6
:106630007020814330200143D15404E0002A02D16C
:10664000081CFFF78FFCF8BD0C090020FFFFFF8F2F
:1066500060050020507B0000E408002038B5051CD0
:106660000124064BA200D258002A06D0211C281C67
:106670000134FFF75FFFE4B2F3E738BD6C000020A0
:1066800008B5084B8A00D058002803D003689B68DF
:10669000984706E0C9B2044B49015918886880043C
:1066A000800C08BDE40800200C09002010B50C1C6B
:1066B000FFF7E6FF00280CD0064BE1B21B6808315B
:1066C000490159184A7980235B4213434B710223D5
:1066D000CB7110BD0C09002070B5CAB2134B144821
:1066E000540189015918031959609D6811490832EC
:1066F00029408025AD022943996099684026890B7D
:10670000890399600368510159180D7935430D715A
:106710005101591889794D06FAD551015918C9798D
:10672000CD07FAD50419A068C0B270BD24070020B7
:106730000C090020FF3F00F038B50C4B141C1B68FF
:106740000D1CFF335A7940210A435A710021FFF78B
:10675000C3FFA04200D9201C0023A34204D0044A56
:106760009A5CEA540133F8E738BDC0460C090020B2
:106770002407002010B5C9B20C48490143189A6893
:106780009204920C3F2A08D9141C9A68403CA40435
:10679000920BA40C9203224302E09A68920B92039C
:1067A0009A6041188868C0B210BDC0460C0900202C
:1067B000F0B51C1C2F4B85B01B68061C0D1C0292EB
:1067C000002B51D02C4F3978C9B2002902D11920A1
:1067D000FEF7BEFE64233B70284BAA00D058002869
:1067E00005D0036802995B68221C984740E0301C82
:1067F000291CFFF745FFA04204D2301C291CFFF7DB
:106800003FFF041C291C301CFFF7B4FF1C4FE9B2EA
:106810004A010191396803928B18FF335A7A01219A
:106820000A4318495A72AB01C9180298221C00F099
:1068300012FD002C1BD0301C291CFFF721FF002863
:1068400015D1019B3A6808335B01D31819794020B0
:10685000014319710121D97103995318FF339A7AB1
:1068600001210A439A7202E00120404200E0201C0C
:1068700005B0F0BD100A002008090020E40800203F
:106880000C0900202407002013B56C460734221C95
:106890000123FFF78DFF012801D1207801E00120BD
:1068A000404216BDF0B51C1C3F4B85B01B680E1C4A
:1068B0000292002B6AD08023DB019C4266D83B4DBC
:1068C0002978C9B2002902D11A20FEF741FE6423BB
:1068D00000222B700092002C56D0354DF7B22B6859
:1068E00001933B1C0833019A5B01D3189B79DB09A8
:1068F0001AD0304B3049186800F09CFB2F4B172101
:10690000584300F097FB3B1C0833019A5B01D318F6
:10691000DB799A0708D42A4B9A5D002A38D1421EA7
:10692000002835D0101CEEE7254B00229A55251E75
:106930003F2D00D93F25234AB301D318181C0299D3
:106940002A1C039300F087FC194A7B01D318039A91
:10695000A9045A619A69890C920B92030A439A61BD
:106960003B1C019A08335B01D3180222DA71597972
:10697000802252420A435A71009B029A5B195219B3
:106980000093641B0292A6E700980BE0012008E048
:1069900001229A557B01ED18AB69101C9B0B9B03E0
:1069A000AB61404205B0F0BD100A00202007002076
:1069B0000C0900201000002040420F00701101005F
:1069C000580500206005002070B50E4D1C1C8B0181
:1069D000ED18281C0E1C111C221C00F03CFCF6B209
:1069E0000949760189194D618A69084B201C1340B9
:1069F0008B618B69A2049B0B920C9B0313438B61ED
:106A000070BDC046600500200C090020FF3F00F06B
:106A1000F7B5114B01901B780F1C141C002B19D1DA
:106A20000E4B1E78002E01D1151C08E00C4D0D48B0
:106A30002E888019361900F00EFC2E800AE0002DF9
:106A400008D0BA192B1C01980021FFF7BDFF36189A
:106A50002D1AF4E7201CFEBD0209002000090020C9
:106A60005605002055040020F8B50E1C00AF151E79
:106A7000012D28D9D31DDB08DB006A46D21A9546C2
:106A8000081C00F0F8FC01306C4640000323207025
:106A900063700222AA420ED23378002B0BD0511C15
:106AA000C9B20136A354A94204D000230232635470
:106AB000D2B2EFE72A1C0548211CFFF7A9FF431EAD
:106AC0009841C0B200E00020BD46F8BD0309002097
:106AD00008B5044B00221A70034B04491A88FFF7CB
:106AE00097FF08BD0009002056050020550400202E
:106AF000F0B5204A87B001230026009102A9137047
:106B0000051C0296FFF70AFC03AC092701903A1C0A
:106B1000201C311C00F0A8FB02236370A023E3714A
:106B2000FA232372029B0122DB196380019B6271AD
:106B30002371104A009B27701670BB4205D1281C98
:106B4000211C1A1CFFF764FF11E00B4B01221A7085
:106B50000A4B211C3A1C281C1E800296FFF758FF86
:106B6000281C02A9FFF7DAFB281CFFF7B1FF012060
:106B700007B0F0BD020900200009002056050020E2
:106B800070B5CE788AB0051C0C1C022E08D1C988BD
:106B90002348FFF7ADFF031C581E8341D8B23DE0E8
:106BA00000F022FA211C00F0EEF9002803D0C317F0
:106BB0001B1AD80F32E0012E04D1E2881949112A9C
:106BC00027D823E0032E29D1A278002A05D116491F
:106BD000E2880B78934219D81BE0022A03D1A279EC
:106BE000281C124904E0012A05D1A2791049281C69
:106BF000FFF73AFF12E0032A10D100F0F5F901A9DE
:106C000000F0D1F9A279281C01A9F1E7D2B2002A3B
:106C100000D10A78281CFFF7FBFE01200AB070BDE6
:106C2000030900207C7B0000787B00008E7B000045
:106C3000607B000073B5051C48780C1C0B2878D8C5
:106C400000F0E4F9081C7728773E4306474B686F4D
:106C500000206FE0097801AA002903D1117051705A
:106C6000281C09E0002313705370334B1B78012B51
:106C700000D11370281C002102234FE08A780023E2
:106C8000012A04D101AA137053702C4BEEE72A4A53
:106C9000137049E08E78012E07D1284B01AA0021FC
:106CA0001E701170281C331C38E0002E08D1224AB7
:106CB00001231370224A9169890B8903916138E09D
:106CC000A178281CFFF7F2FB33E0281CFFF758FFE0
:106CD00030E0281C00211B4A1FE00A780020D30660
:106CE00028D1281CFFF7BAFCA2781549154B0224BD
:106CF0001A600A682A23FF33D05C2043D0544A200C
:106D0000FF30145C01231C4314548A69920B9203D4
:106D10008A610EE00C4A281C00210123FFF754FE73
:106D200007E08A78084B1A60054B9A69920B920328
:106D30009A61012076BDC04654040020010900205C
:106D40000C090020100A002004090020F8B54B4B64
:106D5000071C1C78002C00D08EE0494D2868838BDE
:106D600019070DD5201CFFF7FDF82B6810201A1C01
:106D7000FF32917A01439172424A146008229A8349
:106D80002B689A8B50071FD504229A833E4B1A78A2
:106D9000002A0AD01A78013AD2B21A701B78002B56
:106DA00003D11A200121FEF7D3FB384B1A78002AB1
:106DB0000AD01A78013AD2B21A701B78002B03D18C
:106DC00019200121FEF7C4FB2B68FF331A7AD10684
:106DD00026D510221A725A7940210A432C495A7139
:106DE0000A786023381C1A4202D1FFF723FF01E022
:106DF000FFF780FB002806D02B688022FF339979AB
:106E000052420A4301E0234B20229A712B68FF3340
:106E10001A7A500604D540221A72597A0A435A72D5
:106E20002968FE230E8C00241E40E1B2002E23D0E0
:106E3000321C012322411A4216D0221C2868083233
:106E400052018218D079184203D1D279DA401A421D
:106E500007D0114BA200D058002809D003681B6846
:106E600098470123A3409E430134092CDDD103E060
:106E7000381CFFF769FAF4E7F8BDC04600090020A6
:106E80000C090020100A002020070020080900201B
:106E900024070020FF500041E408002008B5024804
:106EA000FFF754FF08BDC04603090020014A024B0A
:106EB0001A607047005000410C09002010B50021F5
:106EC000041CA42200F0D0F9221CA4320023201CB0
:106ED0001360536010BDF8B5051CA4352E68041C62
:106EE0000F1C701CA42100F0E9F8231CA8331B68B8
:106EF000994201D0A7552960F8BD021C0023A43295
:106F0000A83013600360704738B5021C041CA83415
:106F1000A43223681268934207D0C55CA421581C90
:106F200000F0CCF8281C216001E00120404238BD6F
:106F3000031CA433A8301A680368D01A00D5A43003
:106F40007047031C021CA833A4321B6812689342CA
:106F500001D0C05C01E001204042704770B5446838
:106F60000E1C0025002C09D02368201C5B68311CF6
:106F70009847002804DB2D18E468F3E7281C01E09B
:106F80000120404270BD38B544680D1C002C08D06B
:106F90002368201C9B68291C9847002802D1E468BC
:106FA000F4E7201C38BD38B544680D1C002C07D010
:106FB0002368201C291CDB689847E4682D18F5E736
:106FC0002C7038BD38B544680D1C002C08D02368DF
:106FD000201C1B68291C9847002803D1E468F4E7AB
:106FE000201C00E0012038BD064B0122196810B5B5
:106FF0001140054805D10224047004244470416006
:107000001A6010BD1C0A0020140A002002B4714648
:1070100049084900095C49008E4402BC7047C046DB
:1070200003B47146490840004900095A49008E449A
:1070300003BC7047002934D00123002210B48842D9
:107040002CD301242407A14204D2814202D2090197
:107050001B01F8E7E400A14204D2814202D24900B8
:107060005B00F8E7884201D3401A1A434C08A0425B
:1070700002D3001B5C0822438C08A04202D3001BF1
:107080009C082243CC08A04202D3001BDC08224308
:10709000002803D01B0901D00909E3E7101C10BC2C
:1070A0007047002801D00020C04307B4024802A165
:1070B0004018029003BDC046D90000000029F0D05E
:1070C00003B5FFF7B9FF0EBC4243891A1847C04603
:1070D000002941D010B4041C4C40A44601230022D6
:1070E000002900D54942002800D5404288422CD3CF
:1070F00001242407A14204D2814202D209011B01CA
:10710000F8E7E400A14204D2814202D249005B00C8
:10711000F8E7884201D3401A1A434C08A04202D330
:10712000001B5C0822438C08A04202D3001B9C0871
:107130002243CC08A04202D3001BDC0822430028D3
:1071400003D01B0901D00909E3E7101C6446002C99
:1071500000D5404210BC7047002806D003DB002059
:10716000C043400801E08020000607B4024802A1A5
:107170004018029003BDC046190000000029EBD062
:1071800003B5FFF7A7FF0EBC4243891A1847C04654
:107190007047C04608B5031C081C191C00F002F813
:1071A00008BD000038B5051C05480C1C131C002840
:1071B00004D00220291C221C00E000BF38BDC046BC
:1071C0000000000070B50E4B0E4D0024ED1AAD10FE
:1071D0001E1CAC4204D0A300F35898470134F8E7D2
:1071E00000F08CF9084B094D0024ED1AAD101E1C5F
:1071F000AC4204D0A300F35898470134F8E770BDBF
:10720000F8000020F8000020F800002038010020DD
:1072100008B5034B011C186800F076F808BDC0469D
:10722000F400002008B5034B011C186800F024F896
:1072300008BDC046F400002030B50023934208D0BA
:10724000C55C0133CC18013C2478A542F6D0281B3C
:1072500000E0002030BD10B50023934203D0CC5C89
:10726000C4540133F9E710BD031C8218934202D0C5
:1072700019700133FAE7704730B5002940D004395E
:107280000B68002B00DAC9181E4A1368141C002B67
:1072900002D14B60116033E099420FD208680A189E
:1072A0009A4205D113685268C01808604A6000E02D
:1072B0004B60216024E08A4203D8131C5A68002ADC
:1072C000F9D11D685C198C420BD1096869185818EE
:1072D0001960904214D114685268091919605A60F3
:1072E0000EE08C4202D90C23036009E008680C18F8
:1072F000944203D114685268001908604A605960CA
:1073000030BDC046240A002070B50323CD1C9D4328
:107310000835061C0C2D01D20C2501E0002D3FDBA9
:107320008D423DD3204B1C681A1C211C002913D010
:107330000868431B0DD40B2B02D90B60CC181EE040
:107340008C4202D1636813601AE0486860600C1CCC
:1073500016E00C1C4968E9E7144C2068002803D1AA
:10736000301C00F061F82060301C291C00F05CF833
:10737000431C15D0C41C03239C4384420AD12560BE
:10738000201C0B300722231D9043C31A0BD05A42F6
:10739000E25008E0211A301C00F046F80130EED12E
:1073A0000C233360002070BD240A0020200A002036
:1073B000174B10B51C68A36B002B15D11820FFF7D5
:1073C00027FF144BA0630380134B4380134B838030
:1073D000134BC380134B0381052343810B2383810C
:1073E0000122002302614361084B074AA46B206914
:1073F000616900F047F8012200238018594120619B
:1074000061614800400810BD2D7F954C2DF4515806
:10741000F40000200E330000CDABFFFF341200005B
:107420006DE6FFFFECDEFFFF38B5074C0023051CBF
:10743000081C236000F048F8431C03D12368002B8C
:1074400000D02B6038BDC0462C0A002010B5021CAD
:107450001378002B01D00132FAE7CC5CD45401330D
:10746000002CFAD110BD031C0A7801311A700133C7
:10747000002AF9D170470023C25C0133002AFBD1F6
:10748000581E70479C460304F0B51B0C17043F0CB4
:10749000150C1E1C041C000C7E436B4347434543E4
:1074A000FB18300C1818874202D980235B02ED18B4
:1074B000030CED1863465C434A433604360CA118AE
:1074C000000480194919F0BD094A1368002B0CD03B
:1074D00018186946884202D81060181C7047054B7E
:1074E0000C2201201A604042F8E7034B1360EFE7DB
:1074F000280A00202C0A0020300A0020F8B5C046D7
:10750000F8BC08BC9E467047F8B5C046F8BC08BC3D
:107510009E46704761726475696E6F005F74657333
:107520007400485454502F312E3120323030204FC7
:107530004B00436F6E74656E742D547970653A20FC
:10754000746578742F68746D6C0048656C6C6F207E
:1075500066726F6D2061206D444E532D656E6162C1
:107560006C6564207765622D736572766572207232
:10757000756E6E696E6720006F6E20796F75722070
:1075800041726475696E6F20626F61726421005789
:10759000495A6E6574000000000000000000000001
:1075A000012E0000352E0000612E0000792E000013
:1075B000A32E0000C72E00005D2F0000D12E00007A
:1075C000972E0000F12F00004D300000152E000016
:1075D000212E0000F12D000000000000000000003E
:1075E0009D3000006D310000B1300000000000004F
:1075F00001005E000000000000000000000000002C
:1076000071320000DB3200006D320000F532000004
:107610004D33000085320000BD3300000934000006
:107620009D320000C1320000E9340000D132000078
:107630006D330000213300004D320000593200004C
:1076400069320000000000002E5F7463702E6C6FC2
:1076500063616C005F73657276696365732E5F6446
:107660006E732D73642E5F7564702E6C6F63616C26
:1076700000000000000000000B00000002000000FD
:1076800004000000FF00FFFFFFFF0B0000000000F0
:107690000A0000000200000004000000FF00FFFFDD
:1076A000FFFF0A00000000000E00000008000000BC
:1076B00004000000FF00FFFFFFFF0E0000000000BD
:1076C00009000000040000001C000000FF00010091
:1076D0000100090000000000080000000400000094
:1076E0001C000000FF00000000001000000000006F
:1076F0000F000000040000001C000000FF00010358
:1077000001030F000000000014000000050000004D
:107710002C000000FF000200020004000000000036
:10772000150000000800000004000000FF00FFFF3B
:10773000FFFF05000000000006000000040000003C
:107740001C0000000600000100010600000000000F
:1077500007000000040000001C00000007000101F9
:1077600001010700000000001200000004000000FA
:107770001C000000FF0000030003020000000000E6
:1077800010000000040000001C000000FF000002C8
:1077900000020000000000001300000005000000CF
:1077A0002C000000FF0003000300030000000000A5
:1077B00011000000040000001C000000FF00010296
:1077C00001020100000000000200000001000000B2
:1077D000020000000000FFFFFFFF020001000000A8
:1077E0000800000001000000180000000200000472
:1077F0000004080001000000090000000100000072
:10780000180000000300010401040900000000004A
:107810000400000001000000000000000400FFFF61
:10782000FFFF040000000000050000000100000050
:10783000000000000500FFFFFFFF05000100000041
:107840000200000001000000000000000A00FFFF2D
:10785000FFFF020000000000160000000200000010
:1078600004000000FF00FFFFFFFF06000000000013
:10787000170000000200000004000000FF00FFFFEE
:10788000FFFF0700000000000C00000003000000E4
:1078900004000000FF00FFFFFFFF0C0001000000DC
:1078A0000A0000000300000004000000FF00FFFFCA
:1078B000FFFF0A00010000000B00000003000000B1
:1078C00004000000FF00FFFFFFFF0B0001000000AD
:1078D000030000000B00000004000000FF00FFFF99
:1078E000FFFFFF00000000001B0000000B00000075
:1078F00004000000FF00FFFFFFFFFF00000000008A
:107900001C0000000600000000000000FF00FFFF58
:10791000FFFFFF000000000018000000060000004C
:1079200000000000FF00FFFFFFFFFF00000000005D
:10793000190000000600000000000000FF00FFFF2B
:10794000FFFFFF0001000000160000000300000020
:1079500000000000FF00FFFFFFFFFF00010000002C
:10796000170000000300000000000000FF00FFFF00
:10797000FFFFFF00000000001600000002000000F2
:1079800000000000FF00FFFFFFFFFF0000000000FD
:10799000170000000200000000000000FF00FFFFD1
:1079A000FFFFFF00000000001300000002000000C5
:1079B00000000000FF00FFFFFFFFFF0000000000CD
:1079C000100000000200000000000000FF00FFFFA8
:1079D000FFFFFF0000000000120000000200000096
:1079E00000000000FF00FFFFFFFFFF00000000009D
:1079F000110000000200000000000000FF00FFFF77
:107A0000FFFFFF00000000000D0000000400000068
:107A10000C000000FF000100FFFF0D00000000004F
:107A200015000000050000000C000000FF0003002E
:107A3000FFFFFF000000000006000000040000003F
:107A40000C000000FF000001FFFFFF00000000002D
:107A500007000000040000000C000000FF0001010E
:107A6000FFFFFF0000000000030000000100000015
:107A700002000000FF00FFFFFFFFFF00000000000A
:107A80000200000001000000020000001400FFFFDF
:107A9000FFFF0200000000000600000001000000DF
:107AA00002000000060000010001060000000000C6
:107AB00007000000010000000200000007000101B3
:107AC00001010700000000000000000000000000AD
:107AD00075560000000000000D0A006E616E00691E
